:0400000022EF6FF08C
:10DD690041455232303100036E8C94035033EC70CC
:10DD7900F0C80E00D0E82EFDD71200036E8C840384
:10DD89005033EC70F0C80E00D0E82EFDD712000514
:10DD99006E05C006F00650D8B412000444E846FCEB
:10DDA9000B1009B8EC6EF00606F5D7056E05C0062E
:10DDB900F00650D8B412000444E846FC0B1809B820
:10DDC900EC6EF00606F5D7015002100310D8B40620
:10DDD900D0000E011A000E021A800E031A01C001AA
:10DDE900F002C002F003C003F012000F501102F359
:10DDF900CF13F0F4CF14F00F501202F35014261081
:10DE0900501102F350142613C00FF014C010F01271
:10DE190000026E080E036E000E046ED890023404E0
:10DE290034046ED89002360150045CD8A002D001A7
:10DE390050045E032EF2D704501200690EF66EDD0F
:10DE49000EF76E000EF86E00EE75F010EE07F00991
:10DE590000F5CFEEFFE550E150FAE17D6A7C6A00FA
:10DE690001EEEF77F0096E800EB8EC6EF0410E0806
:10DE79006EEE0EE82EFED7082EFCD700D0000E0A53
:10DE89006E04D0C00EB8EC6EF00A2A07500A5CD8AE
:10DE9900A0F8D7010E046E0950CCEC6EF012003DCB
:10DEA900503E103F10D8B406D0000E3D1A000E3E69
:10DEB9001A800E3F1A3AC02EF03BC02FF03CC030FA
:10DEC900F03DC031F03EC032F03FC033F0B5EC73E5
:10DED900F02EC03AF02FC03BF030C03CF01200C326
:10DEE9000E046ECD0EE82EFED7042EFCD700F033BB
:10DEF9000EB8EC6EF0320EB8EC6EF0280EB8EC6E7F
:10DF0900F00F0EB8EC6EF0060EB8EC6EF0010EB81C
:10DF1900EC6EF0C30E046ECD0EE82EFED7042EFC77
:10DF2900D700F00F0EB8EC6EF012008E0E116E06CF
:10DF3900D0D8900C320B320A320932112A000E095C
:10DF4900140D6E000E0A140E6E000E0B140F6EFFE8
:10DF59000E0C14106E0D500E100F101010D8A4E8EE
:10DF6900D709C001F00AC002F00BC003F011C004C8
:10DF7900F0000E056E3DEC71F001C009F002C00A17
:10DF8900F003C00BF012001250131014101510D822
:10DF9900B424D0010E166E06D0D89012361336145A
:10DFA900361536162A15AEF8D712500E5C13500FD7
:10DFB900581450105815501158D8A008D012500EA6
:10DFC9005E13500F5A1450105A1550115AD8901503
:10DFD90032143213321232162EE7D70EC00EF00F5A
:10DFE900C00FF010C010F011C011F01200000E06A1
:10DFF9006E02AE06D0016C021ED8B0022A010E06CE
:10E009006E04AE04D0036C041ED8B0042A03500475
:10E0190010D8B418D0010E056E04D0D89003360478
:10E0290036052A04AEFAD70350015C04500258D8C9
:10E03900A004D00350015E0450025AD89004320360
:10E0490032052EF1D70650D8B404D0016C021ED87F
:10E05900B0022A01C001F002C002F01200026E02F1
:10E0690050F00B016E8C500F0B8C6E01508C108C84
:10E079006E000EF2BE010E7D6EF29E8C86530EE886
:10E089002EFED700F08C96C80E00D0E82EFDD77D65
:10E09900B002D0F29E01D0F28E0238F00B026E026D
:10E0A90050F00B016E8C500F0B8C6E01508C108C44
:10E0B9006E000EF2BE010E7D6EF29E8C86530EE846
:10E0C9002EFED700F08C96C80E00D0E82EFDD77D25
:10E0D900B002D0F29E01D0F28E1200000E096E003D
:10E0E9000E0A6E000E0B6E000E0C6E055006100720
:10E0F900100810D8B42AD0010E0D6E06D0D890059C
:10E10900360636073608360D2A08AEF8D7D89009EC
:10E11900360A360B360C360550015C065002580794
:10E1290050035808500458D8A009D00550015E067C
:10E1390050025A0750035A0850045A0980D89008C7
:10E14900320732063205320D2EE1D709C001F00A35
:10E15900C002F00BC003F00CC004F01200000E0C5A
:10E169006E0AAE06D0096C0A1ED8B00A2A010E0C36
:10E179006E08AE06D0076C081ED8B0082A010E0C2E
:10E189001A000E0E6E000E0D6E09500A10D8B41C3E
:10E19900D0010E0B6E04D0D89009360A360B2A0A24
:10E1A900AEFAD7D8900D360E360950075C0A5008DA
:10E1B90058D8A005D00950075E0A50085A0D80D8D2
:10E1C900900A3209320B2EEDD70C50D8B404D00D79
:10E1D9006C0E1ED8B00E2A0DC007F00EC008F01242
:10E1E9000003AE16D001C007F002C008F003C00951
:10E1F900F0071E081E091E072A000E082209220020
:10E209000E0724016E000E0820026E800E092003FD
:10E219006E06AE16D004C007F005C008F006C009A6
:10E22900F0071E081E091E072A000E0822092200EF
:10E239000E0724046E000E0820056E800E092006C4
:10E249006E000E011A000E021A800E031A000E0447
:10E259001A000E051A800E061A0450015C055002B8
:10E269005806500358D8B002D0D8901200D880125E
:10E27900000450D8B405D0015002100310D8A40CE2
:10E28900D0000E016E000E026E000E036E12000425
:10E299002AD890033202320132000E0114066E00B0
:10E2A9000E0214076EFE0E0314086E0650071008BE
:10E2B90010D8B40CD0ECD7042A010E0126000E02A6
:10E2C90022000E0322D890033202320132000E01DD
:10E2D90014066E000E0214076EFF0E0314086E0674
:10E2E9005007100810D8B406D0E6D70406D8900114
:10E2F900360236033602BE03D0020E0460F6D70496
:10E30900A0029ED8900432045003120550D8A403E9
:10E319008E01C001F002C002F003C003F012002D0B
:10E32900C02FF0306A316A2C342F3601E330802F48
:10E3390050396E3950D8A409D0000E2B6E000E2C1E
:10E349006E000E2D6E000E2E6E1200170E2F6E2B04
:10E35900C030F02CC031F02DC032F02F28336E04BC
:10E36900D0D890323231323032332EFAD73050345D
:10E379006E2C8EFF0E2B16FF0E2C16000E2D162B53
:10E3890050356E2C50366E2D50376E386A8E0E39D8
:10E399005E39AE16D03950800A8F0FD8B009D00037
:10E3A9000E2B6E000E2C6E000E2D6E000E2E6E12B0
:10E3B90000D8903832373236323532393EF9D715EE
:10E3C900D0170E39640FD0000E2B6E000E2C6E0084
:10E3D9000E2D6E000E2E6E1200D890353636363759
:10E3E90036383639063950D8A4F7D73450D8B40856
:10E3F900D0381E371E361E356C000E3622372238AD
:10E409002235C02BF036C02CF037C02DF038C02E85
:10E41900F0120017C01BF01C6A1D6A16341B360166
:10E42900E31C801B501E6E1E50D8A407D0000E1589
:10E439006E000E166E000E176E12001AC01BF01C2D
:10E449006A1D6A19341B3601E31C801B50236E2395
:10E4590050D8A407D0000E156E000E166E000E17C8
:10E469006E120023507B0F1E2617C023F01A50236B
:10E479001A800E2316168E198EFF0E1816FF0E1906
:10E4890016000E1A16000E1F6E000E206E000E21C9
:10E499006E070E226E15A006D018501F261950209F
:10E4A900221A502122D890173216321532D89018D4
:10E4B9003619361A36222EEED7090E226E15A00607
:10E4C900D018501F26195020221A502122D89017EF
:10E4D9003216321532D890213220321F32222EEED6
:10E4E900D71FC001F020C002F021C003F01EC004F4
:10E4F900F023C005F03DEC71F001C015F002C01623
:10E50900F003C017F01200033404340C6E0C50D819
:10E51900A409D0000E016E000E026E000E036E00FB
:10E529000E046E1200063407340B6E0B50D8A40982
:10E53900D0000E016E000E026E000E036E000E0476
:10E549006E1200038EFF0E0116FF0E0216FF0E0358
:10E5590016000E0416068EFF0E0416FF0E0516FF92
:10E569000E0616000E0716000E076E000E086E0046
:10E579000E096E000E0A6E7F0E0C5E0B50A00F0C7A
:10E589005E200E0B6ED8900736083609360A360417
:10E5990050015C055002580650035807500458D8DA
:10E5A900A009D00450015E0550025A0650035A07CB
:10E5B90050045A0780D89001360236033604360BC8
:10E5C9002EE1D70CAE16D00C50800A9F0FD8B00997
:10E5D900D0000E016E000E026E000E036E000E04D6
:10E5E9006E1200D8900A320932083207320C3EF90D
:10E5F900D715D01F0E0C640FD0000E016E000E024D
:10E609006E000E036E000E046E1200D890073608D5
:10E619003609360A360C060C50D8A4F7D707C001BC
:10E62900F008C002F009C003F00AC004F0120003A8
:10E63900C007F0086A096A0234073601E30880074F
:10E64900500F6E0F50D8A409D0000E016E000E02B3
:10E659006E000E036E000E046E120006C007F0086D
:10E669006A096A0534073601E3088007500E6E0E01
:10E6790050D8A409D0000E016E000E026E000E03E0
:10E689006E000E046E1200028EFF0E0116FF0E02BE
:10E6990016000E0316058EFF0E0416FF0E05160052
:10E6A9000E0616000E0A6E000E0B6E000E0C6E00A2
:10E6B9000E0D6E7F0E0F5E0E50980F0F5E180E0E28
:10E6C9006ED8900A360B360C360D360450015C05AF
:10E6D90050025806500358D8A007D00450015E05CF
:10E6E90050025A0650035A0A80D89001360236035E
:10E6F900360E2EE6D70FAE16D00F50800A970FD8D8
:10E70900B009D0000E016E000E026E000E036E00FD
:10E719000E046E1200D8900D320C320B320A320FF1
:10E729003EF9D715D0170E0F640FD0000E016E00F9
:10E739000E026E000E036E000E046E1200D8900ACF
:10E74900360B360C360D360F060F50D8A4F7D70AFC
:10E75900C001F00BC002F00CC003F00DC004F012B0
:10E769000030C034F0356A366A2F34343601E33567
:10E77900803450396E33C034F0356A366A323434F5
:10E789003601E335803450386E3950D8B40BD0385F
:10E7990050395CD8B00ED0395000083824346E187E
:10E7A9000E346407D031C02EF032C02FF033C030A0
:10E7B900F012003850D8B40BD03950385CD8B00EAC
:10E7C900D0385000083924346E180E346407D02E1E
:10E7D900C02EF02FC02FF030C030F01200060E37D7
:10E7E9006E30BE378E33BE378C2F8EFF0E2E16FF3E
:10E7F9000E2F16000E3016328EFF0E3116FF0E3216
:10E8090016000E33163850395CD8B01BD0D8903169
:10E819003632363336380639503818D8B40DD03731
:10E829000637C034F0070E3416D8B406D0EFD7D85F
:10E839009030322F322E32392A38503918D8B41F35
:10E84900D0F6D73950385CD8B01AD0D8902E362F98
:10E85900363036390639503818D8B40DD03706371E
:10E86900C034F0070E3416D8B406D0EFD7D8903399
:10E879003232323132382A38503918D8A4F7D737DA
:10E88900AE0CD0FF0E2E1AFF0E2F1AFF0E301A01F2
:10E899000E2E26000E2F22000E302237AC0CD0FF90
:10E8A9000E311AFF0E321AFF0E331A010E312600ED
:10E8B9000E3222000E3322000E376E2E5031262FD3
:10E8C9005032223050332233AE0ED0FF0E311AFFB0
:10E8D9000E321AFF0E331A010E3126000E322200B3
:10E8E9000E3322010E376E31C001F032C002F0330F
:10E8F900C003F039C004F037C005F03DEC71F001F8
:10E90900C02EF002C02FF003C030F012002D6E6D42
:10E919000E2D64A8D0000E126E030E116E000E0AA1
:10E929006E0A0E096E000E046E640E036E2DC00190
:10E93900F0026AFBEC6FF001C007F002C008F0B307
:10E94900EC70F0090E07240F6E000E0820106EFA05
:10E95900EC6EF0D60E0F24F66EFE0E1020F76EF850
:10E969006A000EF8220900F5CF18F00900F5CF1951
:10E97900F00A00F5CF1AF0000E0A6E640E096E2D2A
:10E98900C007F0086AB3EC70F0120E07240F6E008E
:10E999000E0820106E000E126E030E116EFAEC6E48
:10E9A900F0D60E0F24F66EFE0E1020F76EF86A00F0
:10E9B9000EF8220900F5CF15F00900F5CF16F00A77
:10E9C90000F5CF17F00EEC72F015C02AF016C02B27
:10E9D900F017C02CF0000E126E030E116E000E041B
:10E9E9006E0A0E036E2DC001F0026AFBEC6FF00196
:10E9F900C00FF002C010F0FAEC6EF0D60E0F24F63C
:10EA09006EFE0E1020F76EF86A000EF8220900F566
:10EA1900CF18F00900F5CF19F00A00F5CF1AF02A3E
:10EA2900C015F02BC016F02CC017F00EEC72F015C3
:10EA3900C027F016C028F017C029F027C015F02804
:10EA4900C016F029C017F0000E186E000E196E3F9F
:10EA59000E1A6E0EEC72F015C024F016C025F017D0
:10EA6900C026F012000A0E2D6469D0000E126E0342
:10EA79000E116E000E046E0A0E036E2DC001F00217
:10EA89006AFBEC6FF001C00FF002C010F0FAEC6EF7
:10EA9900F0D60E0F24F66EFE0E1020F76EF86A00FF
:10EAA9000EF8220900F5CF18F00900F5CF19F00A80
:10EAB90000F5CF1AF0000E0A6E0A0E096E2DC00776
:10EAC900F0086AB3EC70F0090E07240F6E000E0807
:10EAD90020106E000E126E030E116EFAEC6EF0D657
:10EAE9000E0F24F66EFE0E1020F76EF86A000EF86F
:10EAF900220900F5CF15F00900F5CF16F00A00F547
:10EB0900CF17F00EEC72F015C02AF016C02BF017D3
:10EB1900C02CF02AC015F02BC016F02CC017F0003D
:10EB29000E186E000E196E3F0E1A6E0EEC72F0156D
:10EB3900C024F016C025F017C026F012002D50038E
:10EB49000DD60EF324F66EFE0EF420F76EF86A0069
:10EB59000EF8220900F5CF15F00900F5CF16F00AD5
:10EB690000F5CF17F0000E186E000E196E3F0E1A41
:10EB79006E0EEC72F015C024F016C025F017C026F1
:10EB8900F012002A6E2AAE13D12A6C2A50800A127A
:10EB99000FD8A09AD0000E126E030E116E000E0A45
:10EBA9006E0A0E096E000E046E640E036E2A500181
:10EBB9006E026A01BE0206FBEC6FF001C007F002AB
:10EBC900C008F0B3EC70F0090E07240F6E000E08B0
:10EBD90020106EFAEC6EF0D60E0F24F66EFE0E10B3
:10EBE90020F76EF86A000EF8220900F5CF18F0092F
:10EBF90000F5CF19F00A00F5CF1AF0000E0A6E647D
:10EC09000E096E2A50076E086A07BE0806B3EC7033
:10EC1900F0120E07240F6E000E0820106E000E125F
:10EC29006E030E116EFAEC6EF0D60E0F24F66EFE20
:10EC39000E1020F76EF86A000EF8220900F5CF15BC
:10EC4900F00900F5CF16F00A00F5CF17F00EEC72B7
:10EC5900F015C027F016C028F017C029F027C015F5
:10EC6900F028C016F029C017F0000E126E030E111D
:10EC79006E000E046E0A0E036E2A50016E026A01BE
:10EC8900BE0206FBEC6FF001C00FF002C010F0FAF3
:10EC9900EC6EF0D60E0F24F66EFE0E1020F76EF80D
:10ECA9006A000EF8220900F5CF18F00900F5CF190E
:10ECB900F00A00F5CF1AF00EEC72F015C024F01628
:10ECC900C025F017C026F012002A50800A750FD807
:10ECD900A059D0000E0A6E0A0E096E2A50076E0856
:10ECE9006A07BE0806B3EC70F0090E07240F6E0020
:10ECF9000E0820106E000E126E030E116EFAEC6EE5
:10ED0900F0D60E0F24F66EFE0E1020F76EF86A008C
:10ED19000EF8220900F5CF15F00900F5CF16F00A13
:10ED290000F5CF17F0000E126E030E116E000E04DF
:10ED39006E0A0E036E2A50016E026A01BE0206FBBC
:10ED4900EC6FF001C00FF002C010F0FAEC6EF0D6D3
:10ED59000E0F24F66EFE0E1020F76EF86A000EF8FC
:10ED6900220900F5CF18F00900F5CF19F00A00F5CE
:10ED7900CF1AF00EEC72F015C024F016C025F0176A
:10ED8900C026F012002A50030DD60EF324F66EFEAB
:10ED99000EF420F76EF86A000EF8220900F5CF2468
:10EDA900F00900F5CF25F00A00F5CF26F012002A68
:10EDB90050800A120FD8A09AD0000E126E030E11BD
:10EDC9006E000E0A6E0A0E096E000E046E640E03C2
:10EDD9006E2A50016E026A01BE0206FBEC6FF00159
:10EDE900C007F002C008F0B3EC70F0090E07240F59
:10EDF9006E000E0820106EFAEC6EF0AF0E0F24F6BE
:10EE09006EFE0E1020F76EF86A000EF8220900F562
:10EE1900CF18F00900F5CF19F00A00F5CF1AF00064
:10EE29000E0A6E640E096E2A50076E086A07BE083C
:10EE390006B3EC70F0120E07240F6E000E082010B6
:10EE49006E000E126E030E116EFAEC6EF0AF0E0F1D
:10EE590024F66EFE0E1020F76EF86A000EF82209ED
:10EE690000F5CF15F00900F5CF16F00A00F5CF1718
:10EE7900F00EEC72F015C027F016C028F017C02963
:10EE8900F027C015F028C016F029C017F0000E129F
:10EE99006E030E116E000E046E0A0E036E2A5001E7
:10EEA9006E026A01BE0206FBEC6FF001C00FF002B0
:10EEB900C010F0FAEC6EF0AF0E0F24F66EFE0E10D5
:10EEC90020F76EF86A000EF8220900F5CF18F0094C
:10EED90000F5CF19F00A00F5CF1AF00EEC72F01513
:10EEE900C024F016C025F017C026F012002A508061
:10EEF9000A750FD8A059D0000E0A6E0A0E096E2A9B
:10EF090050076E086A07BE0806B3EC70F0090E07D1
:10EF1900240F6E000E0820106E000E126E030E11E3
:10EF29006EFAEC6EF0AF0E0F24F66EFE0E1020F79F
:10EF39006EF86A000EF8220900F5CF15F00900F500
:10EF4900CF16F00A00F5CF17F0000E126E030E115E
:10EF59006E000E046E0A0E036E2A50016E026A01DB
:10EF6900BE0206FBEC6FF001C00FF002C010F0FA10
:10EF7900EC6EF0AF0E0F24F66EFE0E1020F76EF851
:10EF89006A000EF8220900F5CF18F00900F5CF192B
:10EF9900F00A00F5CF1AF00EEC72F015C024F01645
:10EFA900C025F017C026F012002A50030DAF0EF34A
:10EFB90024F66EFE0EF420F76EF86A000EF82209A8
:10EFC90000F5CF24F00900F5CF25F00A00F5CF268A
:10EFD900F01200000E896E000E8A6E000E8B6E0014
:10EFE9000E8C6E000E8D6E92689368000E946E0002
:10EFF9000E956E000E966E000EC26E0F0EC16E74E7
:10F00900EC6FF0910E406EFF0E416E42EC7BF066A4
:10F019000E666E760E656EC10EE82EFED7652EFC65
:10F02900D7662EFAD700F0010EB8EC6EF0C30E6564
:10F039006ECD0EE82EFED7652EFCD700F0800EB8F7
:10F04900EC6EF0410E656EEE0EE82EFED7652EFCD5
:10F05900D700D0650E406EFF0E416E42EC7BF0C0CA
:10F069000EB8EC6EF0740E406EFF0E416E42EC7BF2
:10F07900F0660E666E760E656EC10EE82EFED765D9
:10F089002EFCD7662EFAD700F0010EB8EC6EF0C34D
:10F099000E656ECD0EE82EFED7652EFCD700F080EA
:10F0A9000EB8EC6EF0410E656EEE0EE82EFED765D9
:10F0B9002EFCD700D09E0E406EFF0E416E000E430F
:10F0C9006E0A0E426E42EC7BF0C00EB8EC6EF0CBCD
:10F0D9000E406EFF0E416E100E426E490E436E4099
:10F0E9000E446E42EC7BF0660E666E760E656EC15E
:10F0F9000EE82EFED7652EFCD7662EFAD700F00152
:10F109000EB8EC6EF0C30E656ECD0EE82EFED76517
:10F119002EFCD700F0800EB8EC6EF0410E656EEE55
:10F129000EE82EFED7652EFCD700D0D50E406EFF17
:10F139000E416E070E426E0B0E436EC70E446EFFF4
:10F149000E456E42EC7BF0C00EB8EC6EF020EE7509
:10F15900F010EE67F0060EDBCFE3FFE806FCE2C035
:10F169000E406EFF0E416E670E426E000E436E42F8
:10F17900EC7BF0660E666E760E656EC10EE82EFEAD
:10F18900D7652EFCD7662EFAD700F0010EB8EC6EC3
:10F19900F0C30E656ECD0EE82EFED7652EFCD700A6
:10F1A900F0800EB8EC6EF0410E656EEE0EE82EFEA4
:10F1B900D7652EFCD700D0250E406EFF0E416E425A
:10F1C900EC7BF0C00EB8EC6EF0AA0E406EFF0E415B
:10F1D9006E42EC7BF0660E666E760E656EC10EE8C9
:10F1E9002EFED7652EFCD7662EFAD700F00E0EB884
:10F1F900EC6EF0660E666E760E656EC10EE82EFE3A
:10F20900D7652EFCD7662EFAD700F0010EB8EC6E42
:10F21900F0C30E656ECD0EE82EFED7652EFCD70025
:10F22900F0800EB8EC6EF0410E656EEE0EE82EFE23
:10F23900D7652EFCD700D0B50E406EFF0E416E4249
:10F24900EC7BF0C00EB8EC6EF0DF0E406EFF0E41A5
:10F259006E42EC7BF0660E666E760E656EC10EE848
:10F269002EFED7652EFCD7662EFAD700F00C0EB805
:10F27900EC6EF0660E666E760E656EC10EE82EFEB9
:10F28900D7652EFCD7662EFAD700F0010EB8EC6EC2
:10F29900F0C30E656ECD0EE82EFED7652EFCD700A5
:10F2A900F0800EB8EC6EF0410E656EEE0EE82EFEA3
:10F2B900D7652EFCD700D0B50E406EFF0E416E42C9
:10F2C900EC7BF0C00EB8EC6EF0EF0E406EFF0E4115
:10F2D9006E42EC7BF0660E666E760E656EC10EE8C8
:10F2E9002EFED7652EFCD7662EFAD700F0080EB889
:10F2F900EC6EF0660E666E760E656EC10EE82EFE39
:10F30900D7652EFCD7662EFAD700F0010EB8EC6E41
:10F31900F0C30E656ECD0EE82EFED7652EFCD70024
:10F32900F0800EB8EC6EF0410E656EEE0EE82EFE22
:10F33900D7652EFCD700D0830E406EFF0E416E427A
:10F34900EC7BF0C00EB8EC6EF0360E406EFF0E414D
:10F359006E42EC7BF00C0EB8EC6EF0660E666E76C3
:10F369000E656EC10EE82EFED7652EFCD7662EFA05
:10F37900D700F0010EB8EC6EF0C30E656ECD0EE845
:10F389002EFED7652EFCD700F0800EB8EC6EF0414A
:10F399000E656EEE0EE82EFED7652EFCD700D04620
:10F3A9000E406EFF0E416E42EC7BF0C00EB8EC6E63
:10F3B900F0140E406EFF0E416E42EC7BF0660E6655
:10F3C9006E760E656EC10EE82EFED7652EFCD766E9
:10F3D9002EFAD700F0010EB8EC6EF0C30E656ECDB3
:10F3E9000EE82EFED7652EFCD700F0800EB8EC6E25
:10F3F900F0410E656EEE0EE82EFED7652EFCD700A5
:10F40900D0000E746E000EF66EFF0EF76E000EF849
:10F419006E0900F550745CD8B076D0FF0EF66EFE1A
:10F429000EF76E000EF86E0800F5CF01F074500D5E
:10F43900EC6FF00009D8B433D0FF0EF66EFE0EF76C
:10F449006E000EF86E0800F5CF01F074500DEC6FE8
:10F45900F0076E000EF66EFF0EF76E000EF86E08DE
:10F4690000F5CF65F074500008652437EC6FF0742F
:10F47900C001F0026A000E046E0A0E036EFBEC6F07
:10F48900F001C06FF002C070F0A70E406EFF0E4190
:10F499006E6FC042F070C043F042EC7BF027D0FFA2
:10F4A9000EF66EFE0EF76E000EF86E0800F5CF012F
:10F4B900F074500DEC6FF0076E745037EC6FF07408
:10F4C900C001F0026A000E046E0A0E036EFBEC6FB7
:10F4D900F001C06FF002C070F0A70E406EFF0E4140
:10F4E9006E6FC042F070C043F042EC7BF0080E66CC
:10F4F9006E9D0E656E060EE82EFED7652EFCD7664C
:10F509002EFAD7742A7FD7000E736E000E076E008D
:10F519000EF66EFF0EF76E000EF86E0800F5CF6559
:10F52900F0652837EC6FF0560E406EFF0E416E42C3
:10F53900EC7BF0010E076E000EF66EFF0EF76E0003
:10F549000EF86E0800F550040F37EC6FF0E70E4027
:10F559006EFF0E416E42EC7BF0660E666E760E65AE
:10F569006EC10EE82EFED7652EFCD7662EFAD7009F
:10F57900F0000EF66EFF0EF76E000EF86E0800F53D
:10F58900CF73F0000E6E6E18D0FD0EF66EFE0EF7FC
:10F599006E000EF86E0800F5CF04F0010EDAEC6E7D
:10F5A900F0080E666E9D0E656E060EE82EFED76596
:10F5B9002EFCD7662EFAD76E2A73506E5CD8A0E45B
:10F5C900D7660E666E760E656EC10EE82EFED7659D
:10F5D9002EFCD7662EFAD700F0010E076E7350F095
:10F5E9000F37EC6FF073C071F07150D8B405D020AB
:10F5F9000EC2EC6EF07106F8D7000E076E7350F06C
:10F609000F37EC6FF0030E406EFF0E416E42EC7B3C
:10F61900F0000E726E000EF66EFF0EF76E000EF819
:10F629006E0900F550725CD8B019D0FE0EF66EFE68
:10F639000EF76E000EF86E0800F5CF04F0010EDA31
:10F64900EC6EF0080E666E9D0E656E060EE82EFED7
:10F65900D7652EFCD7662EFAD7722ADCD70F0EB8DB
:10F66900EC6EF0660E666E760E656EC10EE82EFEC5
:10F67900D7652EFCD7662EFAD7D5D4420E536E0025
:10F689000E546EEED3250E6418D8B404D06450C25B
:10F69900EC6EF0E6D3000E526E000E516E45D0515D
:10F6A9008843D0528462D053C0D9FF54C0DAFFDEF8
:10F6B900CF4FF0DDCF50F0020E5326000E54224FEB
:10F6C900505010D8A41AD0F70E4F6EFF0E506E1579
:10F6D900D04FC0F6FF50C0F7FF000EF86E0F0EF7BF
:10F6E9006403D00800F55005D0F6CFE9FFF7CFEA5B
:10F6F900FFEF50C2EC6EF04F4A502A4FC0F6FF5050
:10F70900C0F7FF000EF86E0F0EF76403D00800F57E
:10F719005005D0F6CFE9FFF7CFEAFFEF500009D83F
:10F72900B49FD3D6D7518C21D040C0F6FF41C0F742
:10F73900FF404A412AF86A0800F5CF64F064500096
:10F749000AD8B41200640AD8B410D0020AD8B4A9ED
:10F75900D70F0AD8B40AD0050AD8B4A1D71F0AD836
:10F76900B4A2D7060AD8B4DED77BD3070E5214D871
:10F77900B4A8D2000E566E060E556E53C0D9FF546A
:10F78900C0DAFFDECF61F0DECF62F0DDCF63F003D8
:10F799000E5326000E542263AE10D061C001F062F0
:10F7A900C002F063C003F0E8EC6EF001C061F00242
:10F7B900C062F003C063F0030E5112000E586E00D0
:10F7C9000E576E615062106310D8B483D0820E4612
:10F7D9006EFF0E476E61C048F062C049F063C04ACF
:10F7E900F064C04BF0100E05D0D8904B324A324924
:10F7F900324832E82EF9D748504624576E000E4752
:10F8090020586E5706D8A0580657C00FF058C01098
:10F81900F0000E126E030E116EFAEC6EF00FC05767
:10F82900F010C058F057C007F058C008F0000E0A91
:10F839006E0A0E096EB3EC70F007C057F008C05895
:10F84900F058AE03D05706D8A0580657500008C63E
:10F85900EC75F024C05DF025C05EF026C05FF05D58
:10F86900C015F05EC016F05FC017F061C018F062F5
:10F87900C019F063C01AF00EEC72F015C05DF016F5
:10F88900C05EF017C05FF05DC001F05EC002F05FBE
:10F89900C003F0000E046E800E056E3F0E066EF575
:10F8A900EC70F0D8B004D05706D8A0580612D05D35
:10F8B900C001F05EC002F05FC003F0000E046E20CC
:10F8C9000E056E410E066EF5EC70F0D8A002D05709
:10F8D9004A582A56BE06D056501BE10D0E555CD823
:10F8E900B017D061C02EF062C02FF063C030F05560
:10F8F900508BEC74F024C031F025C032F026C033AF
:10F90900F0B5EC73F02EC061F02FC062F030C06327
:10F91900F058BE06D058501EE10A0E575CD8B01AEE
:10F92900D0615062106310D8B451D061C02BF0621D
:10F93900C02CF063C02DF094EC71F02B502C102DDD
:10F94900102E10D8B458BE42D0585004E1020E57B8
:10F959005CD8A03CD05DC001F05EC002F05FC0037E
:10F96900F0700E046E890E056E400E066EF5EC7091
:10F97900F0D8B002D0F70E01D0F80E5726FF0E5876
:10F98900225750C6EC75F024C05DF025C05EF02604
:10F99900C05FF061C001F062C002F063C003F05DB6
:10F9A900C004F05EC005F05FC006F01CEC73F00106
:10F9B900C059F002C05AF003C05BF004C05CF0000B
:10F9C9000E616E000E626E000E636E32D061C02B46
:10F9D900F062C02CF063C02DF094EC71F02BC0598B
:10F9E900F02CC05AF02DC05BF02EC05CF061C03A1B
:10F9F900F062C03BF063C03CF059C009F05AC00A3C
:10FA0900F05BC00BF05CC00CF09AEC6FF009C03DE4
:10FA1900F00AC03EF00BC03FF054EC6FF03AC06101
:10FA2900F03BC062F03CC063F0000E586E000E5708
:10FA39006E010E646E0A0E6418D8B41BD0645004AB
:10FA49000D870EF324F66EFE0EF420F76EF86A00A9
:10FA59000EF8220900F550595C0900F5505A580969
:10FA690000F5505B580900F5505C58D8A002D064E5
:10FA79002AE1D7030E5114466E000E5214476E4602
:10FA8900504710D8B44BD02D0EC2EC6EF047D05968
:10FA9900C001F05AC002F05BC003F05CC004F0641E
:10FAA90050040D870EF324F66EFE0EF420F76EF85F
:10FAB9006A000EF8220900F5CF05F00900F5CF0616
:10FAC900F00900F5CF07F00A00F5CF08F072EC70E5
:10FAD900F001C05DF002C05EF003C05FF004C060D9
:10FAE900F05DC00EF05EC00FF05FC010F060C01195
:10FAF900F00A0E126E000E136E000E146E000E1533
:10FB09006EC8EC6FF00EC05DF00FC05EF010C05F04
:10FB1900F011C060F05D50300FC2EC6EF064066405
:10FB290028D8B407D0B4D7300EC2EC6EF05706D837
:10FB3900A0580658BE05D05850F6E15704D8B0F37E
:10FB4900D756BE09D0565004E1090E555CD8A0031A
:10FB5900D0080E646E02D055C064F06450555E0042
:10FB69000E64BEFF0E565A6450D8B403D02E0EC28E
:10FB7900EC6EF06450C6EC75F024C04CF025C04D15
:10FB8900F026C04EF061C018F062C019F063C01AC7
:10FB9900F04CC015F04DC016F04EC017F00EEC72C7
:10FBA900F015C02BF016C02CF017C02DF094EC7195
:10FBB900F02BC059F02CC05AF02DC05BF02EC05C60
:10FBC900F070D059C001F05AC002F05BC003F05C7C
:10FBD900C004F06450040D870EF324F66EFE0EF493
:10FBE90020F76EF86A000EF8220900F5CF05F00932
:10FBF90000F5CF06F00900F5CF07F00A00F5CF08A8
:10FC0900F072EC70F001C05DF002C05EF003C05FFD
:10FC1900F004C060F05DC00EF05EC00FF05FC01070
:10FC2900F060C011F00A0E126E000E136E000E1471
:10FC39006E000E156EC8EC6FF00EC05DF00FC05E61
:10FC4900F010C05FF011C060F05D50300FC2EC6E73
:10FC5900F059C00EF05AC00FF05BC010F05CC01133
:10FC6900F06450040D870EF324F66EFE0EF420F7AF
:10FC79006EF86A000EF8220900F5CF12F00900F5B6
:10FC8900CF13F00900F5CF14F00A00F5CF15F0C82D
:10FC9900EC6FF00EC059F00FC05AF010C05BF011B4
:10FCA900C05CF064066428D8B407D08BD7300EC284
:10FCB900EC6EF05506D8A0560655505610D8B4D05B
:10FCC900D0F5D751BC2ED051A80ED053C0D9FF546E
:10FCD900C0DAFFDECF59F0DECF5AF0DECF5BF0DEBF
:10FCE900CF5CF0040E0ED053C0D9FF54C0DAFFDE4A
:10FCF900CF59F0DDCF5AF0000E5ABEFF0E5B6E5C95
:10FD09006E020E5326000E54225CAE2DD0030E5106
:10FD1900125C1E5B1E5A1E596C000E5A225B225C35
:10FD29002222D051A80ED053C0D9FF54C0DAFFDE29
:10FD3900CF59F0DECF5AF0DECF5BF0DECF5CF004B6
:10FD49000E0FD053C0D9FF54C0DAFFDECF46F0DD25
:10FD5900CF47F046C059F047C05AF05B6A5C6A0267
:10FD69000E5326000E5422010E646E0A0E6418D832
:10FD7900B41BD06450040D870EF324F66EFE0EF406
:10FD890020F76EF86A000EF8220900F550595C094F
:10FD990000F5505A580900F5505B580900F5505CB8
:10FDA90058D8A002D0642AE1D7030E5114466E0038
:10FDB9000E5214476E46504710D8B403D02D0EC2C8
:10FDC900EC6EF06450556E566A55BE560641D055D4
:10FDD900C046F056C047F0D89046364736D89046C8
:10FDE900364736870E4624F66EFE0E4720F76EF824
:10FDF9006A000EF8220900F5CF05F00900F5CF06D3
:10FE0900F00900F5CF07F00A00F5CF08F059C00155
:10FE1900F05AC002F05BC003F05CC004F072EC70F1
:10FE2900F001C00EF002C00FF003C010F004C011C1
:10FE3900F00A0E126E000E136E000E146E000E15EF
:10FE49006EC8EC6FF00E50300F646E6450C2EC6EE9
:10FE5900F05506D8A056065528BAE15628D8A4B7B1
:10FE6900D740C0F6FF41C0F7FF404A412AF86A0867
:10FE790000F5CF64F06450D8B4120004D400010036
:10FE890000000A00000064000000E80300001027D9
:10FE99000000A086010040420F008096980000E112
:10FEA900F50500CA9A3B00803F00204100C8420086
:10FEB9007A44401C4650C34724744997184BBCBE2A
:10FEC9004C6B6E4E03155079AD60F3497100803F5C
:10FED900CDCC3DD7233C12833AB7D138C627373822
:10FEE9008635C0D633CC2B32708930E7DB2EE53C22
:10FEF9001E42A20D00010210022848656C6C6F2099
:10FF0900776F726C6421202020200063616E20626B
:10FF1900652073706563696669656400437572730A
:10FF29006F7220626C696E6B2063616E006C696B25
:10FF3900656C792073746179206F6E210043757245
:10FF4900736F7220706F736974696F6E004469739F
:10FF5900706C61792063616E206265005465787404
:10FF69002063616E206265206F6E006D756C746927
:10FF7900706C65206C696E657300427574207468D5
:10FF890061742077696C6C0048656C6C6F20776FC1
:10FF9900726C642100496E74656765723A20256444
:10FFA90000626520746F67676C6564004173206344
:10FFB900616E2074686500436861725B5D3A202553
:10FFC9007300466C6F61743A202566004C6F6E674A
:10FFD9003A20256C7500637572736F72210073681E
:10FFE900696674656400646973706C617900286E70
:06FFF900756C6C2900008C
:020000040020DA
:08000000FFFFFFFFFFFFFFFF00
:020000040030CA
:0E000000FF061F1EFF8381FF0F400FE00F4021
:00000001FF
