:0400000020EF0BF0F2
:10100000003132334134353642373839432A3023C0
:101010004400010010000001001000280600040236
:1010200018000102100228253032782F253032783E
:101030002F2530327820202020253032783A253074
:1010400032783A253032780020202020202A20745F
:101050006F20424547494E2020202020002020209C
:10106000202320666F72204C4F4747494E4720206F
:1010700020003031323334353637383961626364B9
:10108000656600000A0E1A6E000E1B6EE8D0250E73
:101090002318D8B404D0235003EC0BF0E0D0000E9A
:1010A000226E000E216E000E1D6E03D01D84084AB4
:1010B000092A08C0F6FF09C0F7FF0800F550300AFA
:1010C000D8B4F4D708C0F6FF09C0F7FF0800F55000
:1010D000F4EC0AF0D8A032D0000E226E000E216E81
:1010E00021C001F022C002F0000E046E0A0E036E51
:1010F000CFEC0AF001C021F002C022F0D00E166E33
:10110000FF0E176E08C0F6FF09C0F7FF0800F55084
:10111000186E196A165018261750192218502126D1
:1011200019502222084A092A08C0F6FF09C0F7FF11
:101130000800F550F4EC0AF0D8B0D2D708C0F6FF9A
:1011400009C0F7FF084A092A0800F5CF23F0235009
:10115000000AD8B41200780AD8A481D01AC0D9FFE6
:101160001BC0DAFFDECF1EF0DDCF1FF0020E1A2605
:10117000000E1B22010E236E040E2318D8B412D0C9
:101180002350020D120EF324F66E100EF420F76EAB
:101190000900F5501E5C0900F5501F58D8A002D078
:1011A000232AEAD7800E23BE7F0E166E2150235CC1
:1011B0002250800A1658D8B007D02350215E000E66
:1011C00023BEFF0E225A04D0000E226E000E216EA6
:1011D0001DA40BD021502210D8B415D0300E03EC32
:1011E0000BF02106D8A02206F5D721502210D8B442
:1011F0000AD0200E03EC0BF02106D8A022062150C5
:101200002210D8A4F6D723C020F025D01EC001F0AC
:101210001FC002F02050020D120EF324F66E100EC5
:10122000F420F76E0900F5CF03F00A00F5CF04F0C3
:1012300080EC0AF001500F0B1C6E1C50010D720E59
:10124000F324F66E100EF420F76E0800F5CF23F0AD
:10125000235003EC0BF020062028D8A4D7D708C0D1
:10126000F6FF09C0F7FF084A092A0800F5CF23F066
:101270002350D8B412000BD7000E896E000E8A6E70
:10128000000E8B6E000E8C6E000E8D6E9268936851
:10129000800E946E000E956E000E966E000EC26E5D
:1012A0000F0EC16EA9EC0AF0A00E0E6E860E0F6E28
:1012B000010E106E000E116E52EC0AF0F29E30EC30
:1012C0000BF0000E036ED00E026E27EC0BF0000E3A
:1012D000036E000E026E27EC0BF02CEC0BF030ECE2
:1012E0000BF0000E036ED10E026E27EC0BF0000E19
:1012F0002D6E050E2D6401D00ED02D50010D260E41
:10130000F324D96E000EF420DA6E000EE2EC0AF03F
:10131000DF6E2D2AEED7010EE2EC0AF02C6E2CECDB
:101320000BF0800E0DEC0BF0410E246EEE0EE82E4D
:10133000FED7242EFCD700D0270E086E100E096EA3
:101340002CC00AF00B6A2BC00CF00D6A2AC00EF0FC
:101350000F6A28C010F0116A27C012F0136A26C065
:1013600014F0156A42EC08F0940E0DEC0BF0480EE8
:10137000086E100E096E42EC08F0D40E0DEC0BF066
:101380005D0E086E100E096E42EC08F0330E256EED
:10139000BB0E246EE00EE82EFED7242EFCD7252EA1
:1013A000FAD78DD7000E096E000E0A6E000E0B6E76
:1013B000000E0C6E0550061007100810D8B42AD085
:1013C000010E0D6E06D0D890053606360736083663
:1013D0000D2A08AEF8D7D89009360A360B360C36E7
:1013E0000550015C06500258075003580850045835
:1013F000D8A009D00550015E0650025A0750035A82
:101400000850045A0980D890083207320632053253
:101410000D2EE1D709C001F00AC002F00BC003F0A5
:101420000CC004F01200026E0250F00B016E8C50E2
:101430000F0B8C6E01508C108C6E000EF2BE010EE4
:101440002F6EF29E8C86530EE82EFED700F08C96FF
:10145000C80E00D0E82EFDD72FB002D0F29E01D0EA
:10146000F28E0238F00B026E0250F00B016E8C50BF
:101470000F0B8C6E01508C108C6E000EF2BE010EA4
:101480002F6EF29E8C86530EE82EFED700F08C96BF
:10149000C80E00D0E82EFDD72FB002D0F29E01D0AA
:1014A000F28E1200C69A94869488800EC76E280E1B
:1014B000C66E000EC56E000E016E5A0E026E620EF2
:1014C000036E020E046E0EC012F00FC013F010C0B7
:1014D00014F011C015F0020ED890123613361436DF
:1014E0001536E82EF9D712C005F013C006F014C067
:1014F00007F015C008F0D2EC09F00104C86E120024
:10150000000E066E000E056E03500410D8B41CD0F9
:10151000010E076E04D0D89003360436072A04AEB5
:10152000FAD7D890053606360350015C04500258AD
:10153000D8A005D00350015E0450025A0580D8900F
:1015400004320332072EEDD705C001F006C002F0C9
:101550001200C30E046ECD0EE82EFED7042EFCD76B
:1015600000F0330E0DEC0BF0320E0DEC0BF0280EEC
:101570000DEC0BF00F0E0DEC0BF0060E0DEC0BF05E
:10158000010E0DEC0BF0C30E046ECD0EE82EFED74F
:10159000042EFCD700F00F0E0DEC0BF012000150E2
:1015A0000302F3CF05F0F4CF06F001500402F3502C
:1015B000062602500302F350062605C001F006C0BD
:1015C00002F01200026E17EC0BF0C58617EC0BF060
:1015D000C9CF03F017EC0BF002B002D0C59A01D0CE
:1015E000C58AC58803501200036E000E026E3A0EC3
:1015F000036005D02F0E036402D0010E026E02C0FC
:1016000001F001301200036E8C84035013EC0AF0D9
:10161000C80E00D0E82EFDD71200036E8C94035044
:1016200013EC0AF0C80E00D0E82EFDD71200C7B4A4
:10163000FED7C5CF01F01F0E0116D8B41200F7D7A0
:101640002F6A2E6A000EF86E00013CEF09F017ECCD
:101650000BF002C0C9FF120017EC0BF0C58412009A
:0816600017EC0BF0C58012002D
:020000040020DA
:08000000FFFFFFFFFFFFFFFF00
:020000040030CA
:0E000000FF061F1EFF8381FF0F400FE00F4021
:00000001FF
