:0400000007EF00F016
:100008006582BAED05F09AEF07F0F29E20EE5FF0F8
:1000180010EE45F0050EDBCFE3FFE806FCE2040E28
:100028003F6E030E3E6E010E03EC08F0C30E3C6EED
:10003800CD0EE82EFED73C2EFCD700F0800E03EC48
:1000480008F0410E3C6EEE0EE82EFED73C2EFCD793
:1000580000D0950E206EFE0E216E77EC03F0C00ED8
:1000680003EC08F0AA0E206EFE0E216E77EC03F06A
:10007800940E03EC08F06B0E206EFE0E216E77ECEA
:1000880003F05C0E3D6E510E3C6E600EE82EFED7FE
:100098003C2EFCD73D2EFAD700D0010E03EC08F019
:1000A800C30E3C6ECD0EE82EFED73C2EFCD700F0DA
:1000B800800E03EC08F0410E3C6EEE0EE82EFED7E3
:1000C8003C2EFCD700D0580E206EFF0E216E77EC28
:1000D80003F0C00E03EC08F0F60E206EFF0E216E42
:1000E80077EC03F0940E03EC08F0E60E206EFF0E9A
:1000F800216E77EC03F0D40E03EC08F0EE0E206EC0
:10010800FF0E216E77EC03F0010E1A6E060E9DECC1
:1001180006F00F0E03EC08F0456846684768486823
:1001280049684A6881A2FED781380F0B0F0B406ED1
:1001380081B2FED700F04050D8B407D04004D8B4FC
:1001480004D00D0E4018D8A42AD0010E1A6E060E3F
:100158009DEC06F04050010DB10EF324F66EFD0E35
:10016800F420F76E0800F550F9EC07F00DD0000EFA
:10017800466E010E07D0000E466E020E03D0000E2A
:10018800466E000E456ECED74050000AD8B4EFD761
:10019800010AD8B4F0D70C0AD8B4F1D7C3D70E0ED9
:1001A8004018D8A4BFD7452803E14628D8B4BAD701
:1001B800020E1A6E060E9DEC06F081A2FED781385B
:1001C8000F0B0F0B416E81B2FED700F04150D8B42F
:1001D80007D04104D8B404D00D0E4118D8A42AD0B1
:1001E800020E1A6E060E9DEC06F04150010DB10E7E
:1001F800F324F66EFD0EF420F76E0800F550F9ECC6
:1002080007F00DD0000E486E010E07D0000E486EA4
:10021800020E03D0000E486E000E476ECED7415036
:10022800000AD8B4EFD7010AD8B4F0D70C0AD8B46A
:10023800F1D7C3D70E0E4118D8A4BFD7472803E17A
:100248004828D8B4BAD7030E1A6E060E9DEC06F0ED
:1002580081A2FED781380F0B0F0B436E81B2FED7F8
:1002680000F04350D8B40BD04304D8B408D0020EE1
:100278004318D8B404D00D0E4318D8A431D0030EB7
:100288001A6E060E9DEC06F04350010DB10EF324D4
:10029800F66EFD0EF420F76E0800F550F9EC07F045
:1002A80011D0000E4A6E010E0BD0000E4A6E020EDF
:1002B80007D0000E4A6E030E03D0000E4A6E000EE1
:1002C800496EC6D74350000AD8B4EBD7010AD8B450
:1002D800ECD7030AD8B4EDD70F0AD8B4EED7B8D7FD
:1002E8000E0E4318D8A4B4D7492803E14A28D8B435
:1002F800AFD7495047243C6E4A5048203D6E455080
:100308003C2646503D223DBE32D03D5004E1050E0C
:100318003C5CD8A02CD00C0E03EC08F0010E03ECCA
:1003280008F0C30E3C6ECD0EE82EFED73C2EFCD74F
:1003380000F0C00E03EC08F0560E206EFE0E216E83
:1003480077EC03F0940E03EC08F0170E206EFE0E07
:10035800216E77EC03F0330E3D6EBB0E3C6EE00E63
:10036800E82EFED73C2EFCD73D2EFAD796D6010EA6
:1003780003EC08F0C30E3C6ECD0EE82EFED73C2EE3
:10038800FCD700F0800E03EC08F0410E3C6EEE0E38
:10039800E82EFED73C2EFCD700D0850E206EFF0E2F
:1003A800216E77EC03F0C00E03EC08F0C50E206E4A
:1003B800FF0E216E77EC03F0940E03EC08F0920E1A
:1003C800206EFF0E216E77EC03F0D40E03EC08F0DC
:1003D800BF0E206EFE0E216E77EC03F0000E1A6E33
:1003E8000C0E9DEC06F081A2FED781380F0B0F0B87
:1003F800446E81B2FED700F04450D8B40BD0440408
:10040800D8B408D0020E4418D8B404D0040E441846
:10041800D8A42BD0000E1A6E0C0E9DEC06F044509A
:10042800010DB10EF324F66EFD0EF420F76E0800F0
:10043800F550F9EC07F00BD0000E07D0010E05D0EF
:10044800030E03D0020E01D0040E3F6ECCD74450E9
:10045800000AD8B4F1D7010AD8B4F0D7030AD8B43F
:10046800EFD7060AD8B4EED7EFD70E0E4418D8A4A3
:10047800BAD7040E3F18D8B4B6D7010E03EC08F06B
:10048800C30E3C6ECD0EE82EFED73C2EFCD700F0F6
:10049800800E03EC08F0410E3C6EEE0EE82EFED7FF
:1004A8003C2EFCD700D0B90E206EFF0E216E77ECE3
:1004B80003F0C00E03EC08F0AC0E206EFF0E216EA8
:1004C80077EC03F0940E03EC08F0E80E206EFE0EB5
:1004D800216E77EC03F0D40E03EC08F0D40E206EF6
:1004E800FE0E216E77EC03F0000E1A6E0B0E9DECDB
:1004F80006F081A2FED781380F0B0F0B426E81B236
:10050800FED700F04250D8B407D04204D8B404D083
:10051800020E4218D8A426D0000E1A6E0B0E9DECBF
:1005280006F04250010DB10EF324F66EFD0EF420D4
:10053800F76E0800F550F9EC07F009D0000E05D069
:10054800010E03D0020E01D0030E3E6ED2D74250E8
:10055800000AD8B4F3D7010AD8B4F2D7030AD8B43A
:10056800F1D7F2D70E0E4218D8A4C3D7030E3F18FE
:10057800D8B4BFD70C0E03EC08F0010E03EC08F05A
:10058800C30E3C6ECD0EE82EFED73C2EFCD700F0F5
:10059800800E03EC08F0410E3C6EEE0EE82EFED7FE
:1005A8003C2EFCD700D0100E206EFF0E216E77EC8B
:1005B80003F0C00E03EC08F0690E206EFF0E216EEA
:1005C80045C022F046C023F047C024F048C025F0BB
:1005D80049C026F04AC027F077EC03F0940E03ECEC
:1005E80008F01CD0D00E206EFF0E216E77EC03F0C1
:1005F80022D09F0E206EFF0E216E77EC03F01BD0E9
:10060800FC0E206EFE0E216E77EC03F014D0770EF0
:10061800206EFF0E216E77EC03F00DD03F50000ADC
:10062800D8B4E0D7010AD8B4E4D7030AD8B4EFD7CE
:10063800010AD8B4E5D7D40E03EC08F015D0DB0EC8
:10064800206EFF0E216E77EC03F018D0350E206E69
:10065800FF0E216E77EC03F011D0230E206EFF0EF3
:10066800216E77EC03F00AD03E50000AD8B4E7D7E1
:10067800010AD8B4EBD7030AD8B4EFD7990E3D6E68
:10068800310E3C6EA20EE82EFED73C2EFCD73D2E36
:10069800FAD700D0010E03EC08F0C30E3C6ECD0E65
:1006A800E82EFED73C2EFCD700F0C00E03EC08F075
:1006B8002C0E206EFE0E216E77EC03F0940E03ECE8
:1006C80008F0020E206EFE0E216E77EC03F0B70ED6
:1006D8003D6EA10E3C6EC40EE82EFED73C2EFCD714
:1006E8003D2EFAD71200220E336E000E346E74D1EE
:1006F800250E3B18D8B404D03B50F9EC07F06CD168
:10070800000E3A6E000E396E000E386E03D0388433
:10071800204A212A20C0F6FF21C0F7FF0800F55023
:10072800300AD8B4F4D720C0F6FF21C0F7FF08007C
:10073800F550DCEC07F0D8A035D0000E3A6E000E6C
:10074800396E39C014F03AC015F0000E176E0A0E53
:10075800166EB7EC07F014C039F015C03AF0D00E99
:100768002E6EFF0E2F6E20C0F6FF21C0F7FF080087
:10077800F550306E316A2E5030262F5031223050CD
:10078800392631503A22204A212A20C0F6FF21C0BA
:10079800F7FF0800F550DCEC07F0D8A003D0D1D75C
:1007A800388E17D020C0F6FF21C0F7FF204A212A33
:1007B8000800F5CF3BF03B50000AD8B41200640A99
:1007C800D8B407D00D0AD8B404D0110AD8B4E8D7E1
:1007D80003D138BE15D033C0D9FF34C0DAFFDECF1D
:1007E80036F0DDCF37F0020E3326000E342237AE56
:1007F80044D0030E3812366C371ED8B0372A3DD095
:1008080033C0D9FF34C0DAFFDECF36F0DDCF37F0A2
:10081800020E3326000E342230D0010E3B6E050E38
:100828003B18D8B432D03B50020DC20EF324F66EFA
:10083800FD0EF420F76E0900F550365C0900F550FE
:100848003758D8A022D03B2AEAD7010E3B6E040EB7
:100858003B18D8B41AD03B50020DCC0EF324F66ED8
:10086800FD0EF420F76E0900F550365C0900F550CE
:100878003758D8A00AD03B2AEAD73850800B000A4C
:10088800D8B4CBD7800AD8B4E0D739503A10D8B406
:1008980009D038C02EF0030E2E16D8B403D039066E
:1008A800D8A03A06800E3BBE7F0E2E6E39503B5CB8
:1008B8003A50800A2E58D8B007D03B50395E000E07
:1008C8003BBEFF0E3A5A04D0000E3A6E000E396E47
:1008D80038A414D038C02EF0030E2E16D8B403D086
:1008E8002D0EF9EC07F039503A10D8B41ED0300E5E
:1008F800F9EC07F03906D8A03A06F5D739503A107E
:10090800D8B40AD0200EF9EC07F03906D8A03A0678
:1009180039503A10D8A4F6D738C02EF0030E2E1648
:10092800D8B403D02D0EF9EC07F03BC035F050D009
:100938003550020DC20EF324F66EFD0EF420F76E4C
:100948000900F5CF16F00A00F5CF17F036C014F0FD
:1009580037C015F003EC07F014C01BF015C01CF0ED
:10096800000E1E6E0A0E1D6E79EC07F01B50300F3C
:100978003B6E2BD036C014F037C015F03550020D41
:10098800CC0EF324F66EFD0EF420F76E0900F5CFB9
:1009980016F00A00F5CF17F003EC07F014500F0B10
:1009A800326E3250010D470EF324F66EFF0EF4201E
:1009B800F76E0800F5CF3BF008D03850800B000ADE
:1009C800D8B4B6D7800AD8B4D5D73B50F9EC07F0DD
:1009D80035063528D8A4F1D720C0F6FF21C0F7FF87
:1009E800204A212A0800F5CF3BF03B50D8B412002A
:1009F8007FD6000E896E000E8A6E000E8B6E000E7A
:100A08008C6E000E8D6E92689368800E946E000E48
:100A1800956E000E966E000EC26E0F0EC16EF086B9
:100A2800F28E53EC07F0A00E216E860E226E010E98
:100A3800236E000E246ED5EC06F02CEC07F01FECAC
:100A480008F0000E166ED00E156E16EC08F0000EAB
:100A5800166E000E156E16EC08F01BEC08F01FEC75
:100A680008F0000E166ED10E156E16EC08F0000E8A
:100A7800546E050E546401D00ED05450010D4D0E25
:100A8800F324D96E000EF420DA6E000ECAEC07F0DB
:100A9800DF6E542AEED7010ECAEC07F0536E1BEC3A
:100AA80008F00C0E03EC08F05B505C10D8A445D09D
:100AB80059505A10D8A441D0800E03EC08F0410ECA
:100AC8004B6EEE0EE82EFED74B2EFCD700D0E10E73
:100AD800206EFD0E216E52C022F0236A51C024F010
:100AE800256A53C026F0276A4FC028F0296A4EC0ED
:100AF8002AF02B6A4DC02CF02D6A77EC03F0940E87
:100B080003EC08F0410E206EFE0E216E77EC03F028
:100B1800D40E03EC08F0800E206EFE0E216E77ECEA
:100B280003F0330E4C6EBB0E4B6EE00EE82EFED774
:100B38004B2EFCD74C2EFAD782D75B505C10D8B41A
:100B480008D0000E5C6E000E5B6E09EC00F007EF3B
:100B580000F059505A10D8B407EF00F0000E5A6E42
:100B6800000E596E26EC08F007EF00F00600FACFE9
:100B780001F0FBCF02F0E9CF03F0EACF04F0E1CFB8
:100B880005F0E2CF06F0D9CF07F0DACF08F0F3CFBF
:100B980009F0F4CF0AF0F6CF0BF0F7CF0CF0F8CF4E
:100BA8000DF0F5CF0EF065C00FF066C010F067C00D
:100BB80011F068C012F0F0A016D081380F0B0F0B9F
:100BC800136E0C0E1318D8A405D0000E5C6E010E1F
:100BD8005B6E08D00E0E1318D8A404D0000E5A6EFF
:100BE800010E596EF09012C068F011C067F010C085
:100BF80066F00FC065F00EC0F5FF0DC0F8FF0CC021
:100C0800F7FF0BC0F6FF0AC0F4FF09C0F3FF08C0E6
:100C1800DAFF07C0D9FF06C0E2FF05C0E1FF04C044
:100C2800EAFF03C0E9FF02C0FBFF01C0FAFF6592BB
:100C38001100000E1C6E000E1D6E000E1E6E000EC2
:100C48001F6E185019101A101B10D8B42AD0010E94
:100C5800206E06D0D890183619361A361B36202A38
:100C68001BAEF8D7D8901C361D361E361F361850C6
:100C7800145C195015581A5016581B501758D8A0FC
:100C880009D01850145E1950155A1A50165A1B508C
:100C9800175A1C80D8901B321A3219321832202E5B
:100CA800E1D71CC014F01DC015F01EC016F01FC0FF
:100CB80017F01200156E1550F00B146E8C500F0BB8
:100CC8008C6E14508C108C6E000EF2BE010E5E6E8F
:100CD800F29E8C86530EE82EFED700F08C96C80E36
:100CE80000D0E82EFDD75EB002D0F29E01D0F28E81
:100CF8001538F00B156E1550F00B146E8C500F0B49
:100D08008C6E14508C108C6E000EF2BE010E5E6E4E
:100D1800F29E8C86530EE82EFED700F08C96C80EF5
:100D280000D0E82EFDD75EB002D0F29E01D0F28E40
:100D380012001C6E800E03EC08F0410E1B6EEE0EC6
:100D4800E82EFED71B2EFCD700D018D0800E03EC5F
:100D580008F0410E1B6EEE0EE82EFED71B2EFCD7B8
:100D680000D019D0C00E03EC08F015D0940E03EC97
:100D780008F011D0D40E03EC08F00DD01A50000A78
:100D8800D8B4E4D7010AD8B4EDD7030AD8B4EED75B
:100D9800010AD8B4EFD7010E176E1C50EBEC07F020
:100DA8001200C69A94869488800EC76E280EC66E66
:100DB800000EC56E000E146E5A0E156E620E166E7B
:100DC800020E176E21C025F022C026F023C027F09E
:100DD80024C028F0020ED890253626362736283625
:100DE800E82EF9D725C018F026C019F027C01AF048
:100DF80028C01BF01DEC06F01404C86E1200000E8B
:100E0800196E000E186E16501710D8B41CD0010EAB
:100E18001A6E04D0D890163617361A2A17AEFAD793
:100E2800D890183619361650145C17501558D8A093
:100E380005D01650145E1750155A1880D8901732DE
:100E480016321A2EEDD718C014F019C015F012007A
:100E58001FEC08F0000E166ED00E156E16EC08F09A
:100E6800000E166E000E156E16EC08F0000E176ECA
:100E7800060E176401D010D01750010DD40EF324BC
:100E8800F66EFD0EF420F76E0800F550156E166A22
:100E980016EC08F0172AECD71BEC08F01200C30E6A
:100EA800176ECD0EE82EFED7172EFCD700F0330EA6
:100EB80003EC08F0320E03EC08F0280E03EC08F0FF
:100EC8000F0E03EC08F0060E03EC08F0010E03EC1D
:100ED80008F0C30E176ECD0EE82EFED7172EFCD7DE
:100EE80000F00F0E03EC08F012001D501E10D8B4CD
:100EF80018D0010E1F6E04D0D8901D361E361F2A3A
:100F08001EAEFAD71D501B5C1E501C58D8A004D02A
:100F18001D501B5E1E501C5AD8901E321D321F2EAB
:100F2800F1D71BC01BF01CC01CF01200460EF66E59
:100F3800100EF76E000EF86E00EE5FF010EE06F081
:100F48000900F5CFEEFFE550E150FAE100EE55F06B
:100F58000A0EEE6AE806FDE165906592000EF86EED
:100F68000001FDEF04F014501602F3CF18F0F4CF8F
:100F780019F014501702F350192615501602F350A1
:100F8800192618C014F019C015F01200156E0DECD2
:100F980008F0C5860DEC08F0C9CF16F00DEC08F086
:100FA80015B002D0C59A01D0C58AC588165012005E
:100FB800166E000E156E3A0E166005D02F0E1664CA
:100FC80002D0010E156E15C014F014301200186E00
:100FD80018C019F01950D8B412001744E846FC0B91
:100FE800100903EC08F01906F5D7166E8C84165014
:100FF8005EEC06F0C80E00D0E82EFDD71200166E83
:101008008C9416505EEC06F0C80E00D0E82EFDD782
:101018001200C7B4FED7C5CF14F01F0E1416D8B4EB
:101028001200F7D70DEC08F015C0C9FF12000DEC3F
:1010380008F0C58412000DEC08F0C5801200FFFF0F
:06104800FFFFFFFF120094
:10FDB000003132334134353642373839432A302323
:10FDC000440001000A006400E8031027010010004D
:10FDD00000010010000420000402180001021004B9
:10FDE00014253032782F253032782F253032782084
:10FDF000202020253032783A253032783A253032AA
:10FE0000780020202020202050494C4C532E2E2EAC
:10FE10002020202020200020202020205452592063
:10FE2000414741494E202020202020002020202032
:10FE30002044495350454E53494E4720202020200E
:10FE40000020202020202A20746F20424547494E60
:10FE5000202020202000202020494E56414C49449B
:10FE600020494E50555420202020002020202023BF
:10FE700020746F20636F6E6669726D2020202000F1
:10FE8000202020202320666F72204C4F4747494E88
:10FE90004720202000202020416674657220656E76
:10FEA000746572696E6720202000202073656C6580
:10FEB0006374696F6E2C2070726573732020002844
:10FEC0003329426F746820283429416C7465726E3E
:10FED0006174650028332920416C7465726E617409
:10FEE0006520284D6F6E290028322920416C7465E9
:10FEF000726E617465202853756E29002D204D6F38
:10FF0000726E2E20262041667465726E6F6F6E00D1
:10FF100050726573637269702E2064657461696CD8
:10FF2000733A002D20416C7465726E6174652028EF
:10FF30004D6F6E29002D20416C7465726E61746581
:10FF4000202853756E290030313233343536373836
:10FF500039616263646566004E756D626572206F1B
:10FF6000662070696C6C733A002D20256452202540
:10FF700064462025644C002D20416C7465726E61CE
:10FF800074696E670052657065746974696F6E3A62
:10FF9000200028322941667465726E6F6F6E002DE5
:10FFA0002041667465726E6F6F6E73002831292070
:10FFB0004576657279646179004672657175656E22
:10FFC00063793A20002831294D6F726E696E67009F
:10FFD0002D204D6F726E696E6773002D204576651A
:10FFE000727964617900202020463A205F00202049
:0FFFF000204C3A205F00202020523A205F000072
:020000040020DA
:08000000FFFFFFFFFFFFFFFF00
:020000040030CA
:0E000000FF061F1EFF8381FF0F400FE00F4021
:00000001FF
