:04000000B6EF08F05F
:10100000003132334134353642373839432A3023C0
:0910100044000001021002280056
:10101A00026E0250F00B016E8C500F0B8C6E015059
:10102A008C108C6E000EF2BE010E086EF29E8C863B
:10103A00530EE82EFED700F08C96C80E00D0E82E8C
:10104A00FDD708B002D0F29E01D0F28E0238F00B22
:10105A00026E0250F00B016E8C500F0B8C6E015019
:10106A008C108C6E000EF2BE010E086EF29E8C86FB
:10107A00530EE82EFED700F08C96C80E00D0E82E4C
:10108A00FDD708B002D0F29E01D0F28E1200000EF7
:10109A00896E000E8A6E000E8B6E000E8C6E000E2C
:1010AA008D6E92689368000E946E000E956E000E17
:1010BA00966E000EC26E0F0EC16E7CEC08F081A215
:1010CA00FED781380F0B0F0B056E81B2FED700F0E9
:1010DA000550010D010EF324F66E100EF420F76E82
:1010EA000800F5CF06F00650A2EC08F0E8D7C30EC8
:1010FA00046ECD0EE82EFED7042EFCD700F0330E78
:10110A00ACEC08F0320EACEC08F0280EACEC08F0AF
:10111A000F0EACEC08F0060EACEC08F0010EACECCD
:10112A0008F0C30E046ECD0EE82EFED7042EFCD7AF
:10113A0000F00F0EACEC08F01200036E8C84035022
:10114A000DEC08F0C80E00D0E82EFDD71200036E91
:10115A008C9403500DEC08F0C80E00D0E82EFDD791
:10116A001200086A076A000EF86E100EF76E000188
:04117A004CEF08F03E
:020000040020DA
:08000000FFFFFFFFFFFFFFFF00
:020000040030CA
:0E000000FF061F1EFF8381FF0F400FE00F4021
:00000001FF
