:0400000007EF00F016
:100008006B828EED07F047EF09F0F29E20EE65F067
:1000180010EE4BF0050EDBCFE3FFE806FCE2040E22
:10002800456E030E446E010EB0EC09F0C30E3C6E33
:10003800CD0EE82EFED73C2EFCD700F0800EB0EC9B
:1000480009F0410E3C6EEE0EE82EFED73C2EFCD792
:1000580000D0FE0E206EFD0E216E4DEC05F0C00E98
:10006800B0EC09F0280E206EFE0E216E4DEC05F066
:10007800940EB0EC09F0D40E206EFD0E216E4DECFE
:1000880005F05C0E3D6E510E3C6E600EE82EFED7FC
:100098003C2EFCD73D2EFAD700D0010EB0EC09F06B
:1000A800C30E3C6ECD0EE82EFED73C2EFCD700F0DA
:1000B800800EB0EC09F0410E3C6EEE0EE82EFED735
:1000C8003C2EFCD700D0210E206EFF0E216E4DEC89
:1000D80005F0C00EB0EC09F0EF0E206EFF0E216E99
:1000E8004DEC05F0940EB0EC09F0DF0E206EFF0E1B
:1000F800216E4DEC05F0D40EB0EC09F0E70E206E41
:10010800FF0E216E4DEC05F0010E1A6E060E71EC15
:1001180008F00F0EB0EC09F04B684C684D684E685B
:100128004F68506881A2FED781380F0B0F0B466EBF
:1001380081B2FED700F04650D8B407D04604D8B4F0
:1001480004D00D0E4618D8A42AD0010E1A6E060E39
:1001580071EC08F04650010D030EF324F66EFD0E07
:10016800F420F76E0800F550A6EC09F00DD0000E4B
:100178004C6E010E07D0000E4C6E020E03D0000E1E
:100188004C6E000E4B6ECED74650000AD8B4EFD74F
:10019800010AD8B4F0D70C0AD8B4F1D7C3D70E0ED9
:1001A8004618D8A4BFD74B2803E14C28D8B4BAD7EF
:1001B800020E1A6E060E71EC08F081A2FED7813885
:1001C8000F0B0F0B476E81B2FED700F04750D8B423
:1001D80007D04704D8B404D00D0E4718D8A42AD0A5
:1001E800020E1A6E060E71EC08F04750010D030E50
:1001F800F324F66EFD0EF420F76E0800F550A6EC19
:1002080009F00DD0000E4E6E010E07D0000E4E6E96
:10021800020E03D0000E4E6E000E4D6ECED7475024
:10022800000AD8B4EFD7010AD8B4F0D70C0AD8B46A
:10023800F1D7C3D70E0E4718D8A4BFD74D2803E16E
:100248004E28D8B4BAD7030E1A6E060E71EC08F011
:1002580081A2FED781380F0B0F0B496E81B2FED7F2
:1002680000F04950D8B40BD04904D8B408D0020ED5
:100278004918D8B404D00D0E4918D8A431D0030EAB
:100288001A6E060E71EC08F04950010D030EF324A6
:10029800F66EFD0EF420F76E0800F550A6EC09F096
:1002A80011D0000E506E010E0BD0000E506E020ED3
:1002B80007D0000E506E030E03D0000E506E000ED5
:1002C8004F6EC6D74950000AD8B4EBD7010AD8B444
:1002D800ECD7030AD8B4EDD70F0AD8B4EED7B8D7FD
:1002E8000E0E4918D8A4B4D74F2803E15028D8B423
:1002F800AFD74F504D243C6E50504E203D6E4B5062
:100308003C264C503D223DBE32D03D5004E1050E06
:100318003C5CD8A02CD00C0EB0EC09F0010EB0EC6F
:1003280009F0C30E3C6ECD0EE82EFED73C2EFCD74E
:1003380000F0C00EB0EC09F0BF0E206EFD0E216E6D
:100348004DEC05F0940EB0EC09F0800E206EFD0E19
:10035800216E4DEC05F0330E3D6EBB0E3C6EE00E8B
:10036800E82EFED73C2EFCD73D2EFAD796D6010EA6
:10037800B0EC09F0C30E3C6ECD0EE82EFED73C2E35
:10038800FCD700F0800EB0EC09F0410E3C6EEE0E8A
:10039800E82EFED73C2EFCD700D05F0E206EFF0E55
:1003A800216E4DEC05F0C00EB0EC09F0B60E206ED3
:1003B800FF0E216E4DEC05F0940EB0EC09F06C0EBA
:1003C800206EFF0E216E4DEC05F0D40EB0EC09F056
:1003D800520E206EFE0E216E4DEC05F0000E1A6EC8
:1003E8000C0E71EC08F081A2FED781380F0B0F0BB1
:1003F8004A6E81B2FED700F04A50D8B40BD04A04F6
:10040800D8B408D0020E4A18D8B404D0040E4A183A
:10041800D8A42BD0000E1A6E0C0E71EC08F04A50BE
:10042800010D030EF324F66EFD0EF420F76E08009E
:10043800F550A6EC09F00BD0000E07D0010E05D040
:10044800030E03D0020E01D0040E456ECCD74A50DD
:10045800000AD8B4F1D7010AD8B4F0D7030AD8B43F
:10046800EFD7060AD8B4EED7EFD70E0E4A18D8A49D
:10047800BAD7040E4518D8B4B6D7010EB0EC09F0B7
:10048800C30E3C6ECD0EE82EFED73C2EFCD700F0F6
:10049800800EB0EC09F0410E3C6EEE0EE82EFED751
:1004A8003C2EFCD700D0930E206EFF0E216E4DEC33
:1004B80005F0C00EB0EC09F0860E206EFF0E216E1E
:1004C8004DEC05F0940EB0EC09F07B0E206EFE0E9C
:1004D800216E4DEC05F0D40EB0EC09F0670E206EDD
:1004E800FE0E216E4DEC05F0000E1A6E0B0E71EC2F
:1004F80008F081A2FED781380F0B0F0B486E81B22E
:10050800FED700F04850D8B407D04804D8B404D077
:10051800020E4818D8A426D0000E1A6E0B0E71ECE5
:1005280008F04850010D030EF324F66EFD0EF4207A
:10053800F76E0800F550A6EC09F009D0000E05D0BA
:10054800010E03D0020E01D0030E446ED2D74850DC
:10055800000AD8B4F3D7010AD8B4F2D7030AD8B43A
:10056800F1D7F2D70E0E4818D8A4C3D7030E4518F2
:10057800D8B4BFD70C0EB0EC09F0010EB0EC09F0FE
:10058800C30E3C6ECD0EE82EFED73C2EFCD700F0F5
:10059800800EB0EC09F0410E3C6EEE0EE82EFED750
:1005A8003C2EFCD700D0B60E206EFE0E216E4DEC10
:1005B80005F0C00EB0EC09F0430E206EFF0E216E60
:1005C8004BC022F04CC023F04DC024F04EC025F0A3
:1005D8004FC026F050C027F04DEC05F0940EB0EC5B
:1005E80009F01CD0C10E206EFF0E216E4DEC05F0F7
:1005F80022D0790E206EFF0E216E4DEC05F01BD037
:100608008F0E206EFE0E216E4DEC05F014D0510EAB
:10061800206EFF0E216E4DEC05F00DD04550000AFE
:10062800D8B4E0D7010AD8B4E4D7030AD8B4EFD7CE
:10063800010AD8B4E5D7D40EB0EC09F015D0CC0E29
:10064800206EFF0E216E4DEC05F018D0DB0E206EEB
:10065800FE0E216E4DEC05F011D0C90E206EFE0E77
:10066800216E4DEC05F00AD04450000AD8B4E7D703
:10067800010AD8B4EBD7030AD8B4EFD7990E3D6E68
:10068800310E3C6EA20EE82EFED73C2EFCD73D2E36
:10069800FAD700D0010EB0EC09F0C30E3C6ECD0EB7
:1006A800E82EFED73C2EFCD700F0C00EB0EC09F0C7
:1006B800950E206EFD0E216E4DEC05F0940EB0ECFB
:1006C80009F06B0E206EFD0E216E4DEC05F0B70E95
:1006D8003D6EA10E3C6EC40EE82EFED73C2EFCD714
:1006E8003D2EFAD7010EB0EC09F0C30E3C6ECD0ECC
:1006F800E82EFED73C2EFCD700F0C00EB0EC09F077
:100708003D0E206EFE0E216E4DEC05F0940EB0EC01
:1007180009F0130E206EFE0E216E4DEC05F081A23D
:10072800FED781380F0B0F0B3E6E81B2FED700F05B
:10073800010EB0EC09F0C30E3C6ECD0EE82EFED7CC
:100748003C2EFCD700F0800EB0EC09F0410E3C6E58
:10075800EE0EE82EFED73C2EFCD700D0F70E206E0A
:10076800FF0E216E5DC022F05EC023F04DEC05F057
:10077800C00EB0EC09F0320E206EFF0E216E5BC089
:1007880022F05CC023F04DEC05F0D40EB0EC09F07B
:10079800A30E206EFE0E216E4DEC05F081A2FED751
:1007A80081380F0B0F0B3F6E81B2FED700F00E0E93
:1007B8003F18D8A4F3D7010EB0EC09F0C30E3C6E75
:1007C800CD0EE82EFED73C2EFCD700F0800EB0EC04
:1007D80009F0410E3C6EEE0EE82EFED73C2EFCD7FB
:1007E80000D0F70E206EFF0E216E5DC022F05EC0B5
:1007F80023F04DEC05F0C00EB0EC09F0540E206E5D
:10080800FD0E216E4BC022F04CC023F04DC024F0E9
:100818004EC025F04FC026F050C027F04DEC05F033
:10082800D40EB0EC09F0A30E206EFE0E216E4DEC36
:1008380005F081A2FED781380F0B0F0B406E81B2F5
:10084800FED700F00E0E4018D8A4F3D7010EB0EC76
:1008580009F0C30E3C6ECD0EE82EFED73C2EFCD719
:1008680000F0800EB0EC09F0410E3C6EEE0EE82E62
:10087800FED73C2EFCD700D0F70E206EFF0E216E5F
:100888005DC022F05EC023F04DEC05F0C00EB0EC68
:1008980009F09F0E206EFF0E216E4DEC05F0940EB0
:1008A800B0EC09F01CD0C10E206EFF0E216E4DEC8D
:1008B80005F022D0790E206EFF0E216E4DEC05F06A
:1008C8001BD08F0E206EFE0E216E4DEC05F014D05D
:1008D800510E206EFF0E216E4DEC05F00DD04550E7
:1008E800000AD8B4E0D7010AD8B4E4D7030AD8B4C8
:1008F800EFD7010AD8B4E5D7D40EB0EC09F0A30EAF
:10090800206EFE0E216E4DEC05F081A2FED78138D7
:100918000F0B0F0B416E81B2FED700F00E0E41187F
:10092800D8A4F3D7010EB0EC09F0C30E3C6ECD0E7F
:10093800E82EFED73C2EFCD700F0800EB0EC09F074
:10094800410E3C6EEE0EE82EFED73C2EFCD700D0B2
:10095800F70E206EFF0E216E5DC022F05EC023F000
:100968004DEC05F0C00EB0EC09F0AB0E206EFF0E9A
:10097800216E4DEC05F0940EB0EC09F015D0CC0EBC
:10098800206EFF0E216E4DEC05F018D0DB0E206EA8
:10099800FE0E216E4DEC05F011D0C90E206EFE0E34
:1009A800216E4DEC05F00AD04450000AD8B4E7D7C0
:1009B800010AD8B4EBD7030AD8B4EFD7D40EB0ECF9
:1009C80009F0A30E206EFE0E216E4DEC05F081A2FB
:1009D800FED781380F0B0F0B426E81B2FED700F0A5
:1009E8000E0E4218D8A4F3D7010EB0EC09F0C30ECE
:1009F8003C6ECD0EE82EFED73C2EFCD700F0800EC4
:100A0800B0EC09F0410E3C6EEE0EE82EFED73C2EFF
:100A1800FCD700D0D70E206EFF0E216E5DC022F0ED
:100A28005EC023F04DEC05F0C00EB0EC09F0100EDE
:100A3800206EFF0E216E4DEC05F0940EB0EC09F01F
:100A4800ED0E206EFE0E216E000E236E000E226E3D
:100A5800000E256E000E246E000E276E000E266E08
:100A68004DEC05F0D40EB0EC09F0A30E206EFE0E8E
:100A7800216E4DEC05F081A2FED781380F0B0F0BCC
:100A8800436E81B2FED700F00E0E4318D8B41200A0
:100A9800F2D7220E336E000E346E74D1250E3B1839
:100AA800D8B404D03B50A6EC09F06CD1000E3A6ED5
:100AB800000E396E000E386E03D03884204A212A81
:100AC80020C0F6FF21C0F7FF0800F550300AD8B45F
:100AD800F4D720C0F6FF21C0F7FF0800F55089ECD5
:100AE80009F0D8A035D0000E3A6E000E396E39C024
:100AF80014F03AC015F0000E176E0A0E166E64EC6C
:100B080009F014C039F015C03AF0D00E2E6EFF0E61
:100B18002F6E20C0F6FF21C0F7FF0800F550306E99
:100B2800316A2E5030262F5031223050392631501C
:100B38003A22204A212A20C0F6FF21C0F7FF0800E8
:100B4800F55089EC09F0D8A003D0D1D7388E17D04A
:100B580020C0F6FF21C0F7FF204A212A0800F5CF60
:100B68003BF03B50000AD8B41200640AD8B407D04E
:100B78000D0AD8B404D0110AD8B4E8D703D138BEC6
:100B880015D033C0D9FF34C0DAFFDECF36F0DDCF61
:100B980037F0020E3326000E342237AE44D0030E4F
:100BA8003812366C371ED8B0372A3DD033C0D9FF3B
:100BB80034C0DAFFDECF36F0DDCF37F0020E332651
:100BC800000E342230D0010E3B6E050E3B18D8B40F
:100BD80032D03B50020D140EF324F66EFD0EF420B5
:100BE800F76E0900F550365C0900F5503758D8A063
:100BF80022D03B2AEAD7010E3B6E040E3B18D8B42C
:100C08001AD03B50020D1E0EF324F66EFD0EF42092
:100C1800F76E0900F550365C0900F5503758D8A032
:100C28000AD03B2AEAD73850800B000AD8B4CBD771
:100C3800800AD8B4E0D739503A10D8B409D038C0AF
:100C48002EF0030E2E16D8B403D03906D8A03A06D3
:100C5800800E3BBE7F0E2E6E39503B5C3A50800AA8
:100C68002E58D8B007D03B50395E000E3BBEFF0E61
:100C78003A5A04D0000E3A6E000E396E38A414D0D9
:100C880038C02EF0030E2E16D8B403D02D0EA6ECC5
:100C980009F039503A10D8B41ED0300EA6EC09F03D
:100CA8003906D8A03A06F5D739503A10D8B40AD040
:100CB800200EA6EC09F03906D8A03A0639503A10A9
:100CC800D8A4F6D738C02EF0030E2E16D8B403D009
:100CD8002D0EA6EC09F03BC035F050D03550020D72
:100CE800140EF324F66EFD0EF420F76E0900F5CF0E
:100CF80016F00A00F5CF17F036C014F037C015F01B
:100D0800D7EC08F014C01BF015C01CF0000E1E6EC6
:100D18000A0E1D6E26EC09F01B50300F3B6E2BD0CF
:100D280036C014F037C015F03550020D1E0EF324EE
:100D3800F66EFD0EF420F76E0900F5CF16F00A00E6
:100D4800F5CF17F0D7EC08F014500F0B326E325075
:100D5800010DFF0EF324F66EFE0EF420F76E080068
:100D6800F5CF3BF008D03850800B000AD8B4B6D77E
:100D7800800AD8B4D5D73B50A6EC09F035063528FB
:100D8800D8A4F1D720C0F6FF21C0F7FF204A212AB6
:100D98000800F5CF3BF03B50D8B412007FD6000EC8
:100DA800896E000E8A6E000E8B6E000E8C6E000E21
:100DB8008D6E92689368800E946E000E956E000E8C
:100DC800966E000EC26E0F0EC16EF086F28E00ECAB
:100DD80009F0A00E216E860E226E010E236E000E03
:100DE800246EA9EC08F0CCEC09F0000E166ED00EBB
:100DF800156EC3EC09F0000E166E000E156EC3ECEE
:100E080009F0C8EC09F0CCEC09F0000E166ED10E12
:100E1800156EC3EC09F0000E5A6E050E5A6401D027
:100E28000ED05A50010D530EF324D96E000EF42043
:100E3800DA6E000E77EC09F0DF6E5A2AEED7010E53
:100E480077EC09F0596EC8EC09F00C0EB0EC09F01B
:100E580061506210D8A445D05F506010D8A441D02A
:100E6800800EB0EC09F0410E516EEE0EE82EFED762
:100E7800512EFCD700D0330E206EFD0E216E58C0C7
:100E880022F0236A57C024F0256A59C026F0276A41
:100E980055C028F0296A54C02AF02B6A53C02CF098
:100EA8002D6A4DEC05F0940EB0EC09F0AA0E206EF8
:100EB800FD0E216E4DEC05F0D40EB0EC09F0E90EF4
:100EC800206EFD0E216E4DEC05F0330E526EBB0EFA
:100ED800516EE00EE82EFED7512EFCD7522EFAD7CF
:100EE80082D761506210D8B408D0000E626E000E2E
:100EF800616E09EC00F007EF00F05F506010D8B4A5
:100F080007EF00F0000E606E000E5F6ED3EC09F084
:100F180007EF00F00600FACF01F0FBCF02F0E9CFAF
:100F280003F0EACF04F0E1CF05F0E2CF06F0D9CF25
:100F380007F0DACF08F0F3CF09F0F4CF0AF0F6CFD4
:100F48000BF0F7CF0CF0F8CF0DF0F5CF0EF06BC02B
:100F58000FF06CC010F06DC011F06EC012F0F0A070
:100F680016D081380F0B0F0B136E0C0E1318D8A464
:100F780005D0000E626E010E616E08D00E0E1318B9
:100F8800D8A404D0000E606E010E5F6EF09012C0FF
:100F98006EF011C06DF010C06CF00FC06BF00EC099
:100FA800F5FF0DC0F8FF0CC0F7FF0BC0F6FF0AC035
:100FB800F4FF09C0F3FF08C0DAFF07C0D9FF06C075
:100FC800E2FF05C0E1FF04C0EAFF03C0E9FF02C079
:100FD800FBFF01C0FAFF6B921100000E1C6E000EA1
:100FE8001D6E000E1E6E000E1F6E185019101A107E
:100FF8001B10D8B42AD0010E206E06D0D89018360F
:1010080019361A361B36202A1BAEF8D7D8901C364C
:101018001D361E361F361850145C195015581A50B4
:1010280016581B501758D8A009D01850145E1950DC
:10103800155A1A50165A1B50175A1C80D8901B3232
:101048001A3219321832202EE1D71CC014F01DC0F4
:1010580015F01EC016F01FC017F01200156E1550BF
:10106800F00B146E8C500F0B8C6E14508C108C6E11
:10107800000EF2BE010E646EF29E8C86530EE82EB0
:10108800FED700F08C96C80E00D0E82EFDD764B0CD
:1010980002D0F29E01D0F28E1538F00B156E155065
:1010A800F00B146E8C500F0B8C6E14508C108C6ED1
:1010B800000EF2BE010E646EF29E8C86530EE82E70
:1010C800FED700F08C96C80E00D0E82EFDD764B08D
:1010D80002D0F29E01D0F28E12001C6E800EB0EC8F
:1010E80009F0410E1B6EEE0EE82EFED71B2EFCD724
:1010F80000D018D0800EB0EC09F0410E1B6EEE0E39
:10110800E82EFED71B2EFCD700D019D0C00EB0ECAD
:1011180009F015D0940EB0EC09F011D0D40EB0EC53
:1011280009F00DD01A50000AD8B4E4D7010AD8B48F
:10113800EDD7030AD8B4EED7010AD8B4EFD7010E19
:10114800176E1C5098EC09F01200C69A9486948881
:10115800800EC76E280EC66E000EC56E000E146E89
:101168005A0E156E620E166E020E176E21C025F00D
:1011780022C026F023C027F024C028F0020ED89001
:101188002536263627362836E82EF9D725C018F012
:1011980026C019F027C01AF028C01BF0F1EC07F0A0
:1011A8001404C86E1200000E196E000E186E165048
:1011B8001710D8B41CD0010E1A6E04D0D890163669
:1011C80017361A2A17AEFAD7D89018361936165085
:1011D800145C17501558D8A005D01650145E175037
:1011E800155A1880D890173216321A2EEDD718C013
:1011F80014F019C015F01200C30E176ECD0EE82EAC
:10120800FED7172EFCD700F0330EB0EC09F0320EE3
:10121800B0EC09F0280EB0EC09F00F0EB0EC09F0B4
:10122800060EB0EC09F0010EB0EC09F0C30E176E13
:10123800CD0EE82EFED7172EFCD700F00F0EB0EC1F
:1012480009F012001D501E10D8B418D0010E1F6EE0
:1012580004D0D8901D361E361F2A1EAEFAD71D5050
:101268001B5C1E501C58D8A004D01D501B5E1E507D
:101278001C5AD8901E321D321F2EF1D71BC01BF0EE
:101288001CC01CF01200A00EF66E130EF76E000EB6
:10129800F86E00EE65F010EE06F00900F5CFEEFFEF
:1012A800E550E150FAE100EE5BF00A0EEE6AE8065E
:1012B800FDE16B906B92000EF86E0001D3EF06F023
:1012C80014501602F3CF18F0F4CF19F01450170287
:1012D800F350192615501602F350192618C014F0A9
:1012E80019C015F01200156EBAEC09F0C586BAECF3
:1012F80009F0C9CF16F0BAEC09F015B002D0C59ABA
:1013080001D0C58AC58816501200166E000E156EDB
:101318003A0E166005D02F0E166402D0010E156E17
:1013280015C014F014301200186E18C019F01950B6
:10133800D8B412001744E846FC0B1009B0EC09F0C9
:101348001906F5D7166E8C84165032EC08F0C80EC4
:1013580000D0E82EFDD71200166E8C94165032EC91
:1013680008F0C80E00D0E82EFDD71200C7B4FED78B
:10137800C5CF14F01F0E1416D8B41200F7D7BAEC64
:1013880009F015C0C9FF1200BAEC09F0C5841200B3
:10139800BAEC09F0C5801200FFFFFFFFFFFF120043
:10FD0200003132334134353642373839432A3023D1
:10FD1200440001000A006400E803102701001000FB
:10FD2200000100100030200004021800010210043B
:10FD320014253032782F253032782F253032782032
:10FD4200202020253032783A253032783A25303258
:10FD5200780050726573637269702E3A202564527E
:10FD6200202564462025644C00202020202020509D
:10FD7200494C4C532E2E2E202020202020002020C3
:10FD820020202054525920414741494E2020202012
:10FD9200202000202020202044495350454E534922
:10FDA2004E4720202020200020202020202A2074BE
:10FDB2006F20424547494E2020202020002020204D
:10FDC200494E56414C494420494E5055542020201A
:10FDD2002000202020202320746F20636F6E66692C
:10FDE200726D2020202000202020202320666F72A8
:10FDF200204C4F4747494E472020200020202041D9
:10FE02006674657220656E746572696E6720202063
:10FE1200002020505245535320414E59204B455902
:10FE22002E2E2E202000202073656C656374696F6E
:10FE32006E2C207072657373202000204F50455243
:10FE42004154494F4E20434F4D504C45544520009C
:10FE5200283329426F746820283429416C746572F2
:10FE62006E6174650028332920416C7465726E617D
:10FE7200746520284D6F6E290028322920416C7448
:10FE820065726E617465202853756E29002D204DB0
:10FE92006F726E2E20262041667465726E6F6F6ED1
:10FEA20000282320746F20636F6E74696E75652E4F
:10FEB2002E2E290050726573637269702E2064655C
:10FEC2007461696C733A002D20416C7465726E61C5
:10FED200746520284D6F6E29002D20416C74657267
:10FEE2006E617465202853756E2900523A2025648C
:10FEF20020463A202564204C3A20256400303132D5
:10FF02003334353637383961626364656600506967
:10FF12006C6C732052656D61696E696E673A004E52
:10FF2200756D626572206F662070696C6C733A0041
:10FF3200546F74616C2074696D653A202564207376
:10FF4200002D20256452202564462025644C002D76
:10FF520020416C7465726E6174696E6700526570DF
:10FF620065746974696F6E3A20002832294166749B
:10FF720065726E6F6F6E002D2041667465726E6FD2
:10FF82006F6E730028312920457665727964617934
:10FF9200004672657175656E63793A20005265702C
:10FFA20065746974696F6E3A004672657175656E43
:10FFB20063793A002831294D6F726E696E67002DA0
:10FFC200204D6F726E696E6773002D2045766572E3
:10FFD200796461790052756E20256420002020200A
:10FFE200463A205F002020204C3A205F002020204B
:0DFFF200523A205F0052756E202564000019
:020000040020DA
:08000000FFFFFFFFFFFFFFFF00
:020000040030CA
:0E000000FF061F1EFF8381FF0F400FE00F4021
:00000001FF
