:0400000007EF00F016
:1000080059828BED09F025EF0BF0F29E20EE4EF0B1
:1000180010EE9FF0050EDBCFE3FFE806FCE2040ECE
:100028000001A56F030E976F020E946F010EB4ECDA
:100038000BF0C30E3C6ECD0EE82EFED73C2EFCD73F
:1000480000F0800EB4EC0BF0410E3C6EEE0EE82E84
:10005800FED73C2EFCD700D0FE0E206EFD0E216E82
:1000680047EC07F0C00EB4EC0BF0280E206EFE0E25
:10007800216E47EC07F0940EB4EC0BF0D40E206E12
:10008800FD0E216E47EC07F05C0E3D6E510E3C6E86
:10009800600EE82EFED73C2EFCD73D2EFAD700D0B6
:1000A800010EB4EC0BF0C30E3C6ECD0EE82EFED75D
:1000B8003C2EFCD700F0800EB4EC0BF0410E3C6EE9
:1000C800EE0EE82EFED73C2EFCD700D0210E206E77
:1000D800FF0E216E47EC07F0C00EB4EC0BF0EF0EEC
:1000E800206EFF0E216E47EC07F0940EB4EC0BF077
:1000F800DF0E206EFF0E216E47EC07F0D40EB4EC35
:100108000BF0E70E206EFF0E216E47EC07F0010E94
:100118001A6E060E70EC0AF00F0EB4EC0BF000012C
:100128009F69A069A169A269A369A46981A2FED790
:1001380081380F0B0F0B00019A6F81B2FED700F0C8
:1001480000019A51D8B407D09A05D8B404D00D0E3E
:100158009A19D8A42DD0010E1A6E060E70EC0AF06A
:1001680000019A51010D030EF324F66EFD0EF420E2
:10017800F76E0800F550AAEC0BF00ED0000E000147
:10018800A06F010E07D0000EA06F020E03D0000E64
:10019800A06F000E9F6FCAD700019A51000AD8B409
:1001A800EDD7010AD8B4EFD70C0AD8B4F0D7BED728
:1001B8000E0E9A19D8A4BAD79F2903E1A029D8B45A
:1001C800B5D7020E1A6E060E70EC0AF081A2FED7A1
:1001D80081380F0B0F0B00019B6F81B2FED700F027
:1001E80000019B51D8B407D09B05D8B404D00D0E9C
:1001F8009B19D8A42DD0020E1A6E060E70EC0AF0C8
:1002080000019B51010D030EF324F66EFD0EF42040
:10021800F76E0800F550AAEC0BF00ED0000E0001A6
:10022800A26F010E07D0000EA26F020E03D0000EBF
:10023800A26F000EA16FCAD700019B51000AD8B463
:10024800EDD7010AD8B4EFD70C0AD8B4F0D7BED787
:100258000E0E9B19D8A4BAD7A12903E1A229D8B4B4
:10026800B5D7030E1A6E060E70EC0AF081A2FED7FF
:1002780081380F0B0F0B00019D6F81B2FED700F084
:1002880000019D51D8B40BD09D05D8B408D0020EFA
:100298009D19D8B404D00D0E9D19D8A434D0030EDE
:1002A8001A6E060E70EC0AF000019D51010D030E46
:1002B800F324F66EFD0EF420F76E0800F550AAEC54
:1002C8000BF012D0000E0001A46F010E0BD0000E2F
:1002D800A46F020E07D0000EA46F030E03D0000E09
:1002E800A46F000EA36FC2D700019D51000AD8B4B5
:1002F800E9D7010AD8B4EBD7030AD8B4ECD70F0A68
:10030800D8B4EDD7B3D70E0E9D19D8A4AFD7A3296B
:1003180003E1A429D8B4AAD7A351A1253C6EA451BE
:10032800A2213D6E9F513C26A0513D223DBE32D0B8
:100338003D5004E1050E3C5CD8A02CD00C0EB4EC6A
:100348000BF0010EB4EC0BF0C30E3C6ECD0EE82E94
:10035800FED73C2EFCD700F0C00EB4EC0BF0BF0E5D
:10036800206EFD0E216E47EC07F0940EB4EC0BF0F6
:10037800800E206EFD0E216E47EC07F0330E3D6EA9
:10038800BB0E3C6EE00EE82EFED73C2EFCD73D2E71
:10039800FAD786D6010EB4EC0BF0C30E3C6ECD0E28
:1003A800E82EFED73C2EFCD700F0800EB4EC0BF004
:1003B800410E3C6EEE0EE82EFED73C2EFCD700D048
:1003C8005F0E206EFF0E216E47EC07F0C00EB4ECF6
:1003D8000BF0B60E206EFF0E216E47EC07F0940E60
:1003E800B4EC0BF06C0E206EFF0E216E47EC07F09C
:1003F800D40EB4EC0BF0520E206EFE0E216E47ECBC
:1004080007F0000E1A6E0C0E70EC0AF081A2FED7EF
:1004180081380F0B0F0B00019E6F81B2FED700F0E1
:1004280000019E51D8B40BD09E05D8B408D0020E56
:100438009E19D8B404D0040E9E19D8A42ED0000E4C
:100448001A6E0C0E70EC0AF000019E51010D030E9D
:10045800F324F66EFD0EF420F76E0800F550AAECB2
:100468000BF00CD0000E000107D0010E05D0030ED2
:1004780003D0020E01D0040EA56FC8D700019E510B
:10048800000AD8B4EFD7010AD8B4EFD7030AD8B412
:10049800EED7060AD8B4EDD7EED70E0E9E19D8A41B
:1004A800B5D7040EA519D8B4B1D7010EB4EC0BF02A
:1004B800C30E3C6ECD0EE82EFED73C2EFCD700F0C6
:1004C800800EB4EC0BF0410E3C6EEE0EE82EFED71B
:1004D8003C2EFCD700D0930E206EFF0E216E47EC09
:1004E80007F0C00EB4EC0BF0860E206EFF0E216EE6
:1004F80047EC07F0940EB4EC0BF07B0E206EFE0E6A
:10050800216E47EC07F0D40EB4EC0BF0670E206EAA
:10051800FE0E216E47EC07F0000E1A6E0B0E70EC03
:100528000AF081A2FED781380F0B0F0B00019C6FD8
:1005380081B2FED700F000019C51D8B407D09C05C9
:10054800D8B404D0020E9C19D8A429D0000E1A6E73
:100558000B0E70EC0AF000019C51010D030EF32400
:10056800F66EFD0EF420F76E0800F550AAEC0BF0BD
:100578000AD0000E000105D0010E03D0020E01D0F2
:10058800030E976FCED700019C51000AD8B4F1D75B
:10059800010AD8B4F1D7030AD8B4F0D7F1D70E0EB0
:1005A8009C19D8A4BED7030EA519D8B4BAD70C0E77
:1005B800B4EC0BF0010EB4EC0BF0C30E3C6ECD0E98
:1005C800E82EFED73C2EFCD700F0800EB4EC0BF0E2
:1005D800410E3C6EEE0EE82EFED73C2EFCD700D026
:1005E800B60E206EFE0E216E47EC07F0C00EB4EC7E
:1005F8000BF0430E206EFF0E216E9FC022F0A0C0AC
:1006080023F0A1C024F0A2C025F0A3C026F0A4C006
:1006180027F047EC07F0940EB4EC0BF01CD0C10E99
:10062800206EFF0E216E47EC07F023D0790E206E66
:10063800FF0E216E47EC07F01CD08F0E206EFE0EC9
:10064800216E47EC07F015D0510E206EFF0E216E7B
:1006580047EC07F00ED00001A551000AD8B4DFD747
:10066800010AD8B4E3D7030AD8B4EED7010AD8B43C
:10067800E4D7D40EB4EC0BF015D0CC0E206EFF0EE0
:10068800216E47EC07F019D0DB0E206EFE0E216EAE
:1006980047EC07F012D0C90E206EFE0E216E47EC13
:1006A80007F00BD000019751000AD8B4E6D7010A29
:1006B800D8B4EAD7030AD8B4EED7990E3D6E310EF6
:1006C8003C6EA20EE82EFED73C2EFCD73D2EFAD764
:1006D80000D0D0EC0BF0000E166ED10E156EC7ECE4
:1006E8000BF0000E0001A66F050EA66501D00FD015
:1006F800A651010D810EF324D96E000EF420DA6E96
:10070800000E7BEC0BF0DF6E0001A62BEDD7010E7F
:100718007BEC0BF00001876FCCEC0BF0010EB4EC16
:100728000BF0C30E3C6ECD0EE82EFED73C2EFCD748
:1007380000F0C00EB4EC0BF0950E206EFD0E216E8D
:1007480047EC07F0940EB4EC0BF06B0E206EFD0E28
:10075800216E47EC07F0B70E3D6EA10E3C6EC40E3D
:10076800E82EFED73C2EFCD73D2EFAD7000E00010E
:10077800946F000E966F000E956F000E996F000E25
:10078800986F16D0000E966F000E956F000E996F39
:10079800010E04D0000E966F000E05D0986F12D08F
:1007A800000E966F010E956F000E996F020EF6D728
:1007B8009751000AD8B4E6D7010AD8B4EBD7030A90
:1007C800D8B4EED795C0A6F0060EA66501D033D1F1
:1007D8009451D8A49CD0A505D8A40AD0A651040D3C
:1007E800A70EF324D96E000EF420DA6E000EA7D0FF
:1007F800A551D8A41AD0A651040DA70EF324D96E7A
:10080800000EF420DA6E010EDE6E000EDD6EA651CB
:10081800040D020EF326000EF422A70EF324D96E5F
:10082800000EF420DA6E000E19D0030EA519D8A414
:100838000AD0A651040DA70EF324D96E000EF42099
:10084800DA6E010E7CD0A6513C6E3D6A95513C187B
:1008580009E196513D18D8A405D0CDD7DE6E000E1B
:10086800DD6EE6D098C03CF099C03DF03C1E3D1EC0
:100878003C4A3D2AA6513E6E3F6A3C503E263D50BA
:100888003F22D8903E363F36D8903E363F36A70EA8
:100898003E24D96E000E3F20DA6EDE50DE10D8A45A
:1008A80002D0010E01D0000E426E436AA651040D1B
:1008B800A70EF324D96E000EF420DA6E42C0DEFFD4
:1008C80043C0DDFF98C03CF099C03DF03C1E3D1E82
:1008D8003C4A3D2AA6513E6E3F6A3C503E263D505A
:1008E8003F22D8903E363F36D8903E363F36020EED
:1008F8003E26000E3F22A70E3E24D96E000E3F2052
:10090800DA6EDE50DE10D8A480D0010E7FD09405B8
:10091800D8A48ED0A505D8B46ED7A551D8B45ED7C3
:10092800030EA519D8B485D7A6513C6E3D6A9551DA
:100938003C1816E196513D18D8A412D04FD7DE6E58
:10094800000EDD6EA651040D020EF326000EF422F1
:10095800A70EF324D96E000EF420DA6E010E7ED7AE
:1009680098C03CF099C03DF03C1E3D1E3C4A3D2AD3
:10097800A6513E6E3F6A3C503E263D503F22D890DD
:100988003E363F36D8903E363F36A70E3E24D96EC7
:10099800000E3F20DA6EDE50DE10D8A402D0010E21
:1009A80001D0000E426E436AA651040DA70EF3242F
:1009B800D96E000EF420DA6E42C0DEFF43C0DDFFC0
:1009C80098C03CF099C03DF03C1E3D1E3C4A3D2A73
:1009D800A6513E6E3F6A3C503E263D503F22D8907D
:1009E8003E363F36D8903E363F36020E3E26000E43
:1009F8003F22A70E3E24D96E000E3F20DA6EDE504D
:100A0800DE10D8A402D0010E01D0000E426E436A57
:100A1800A651040D020EF326000EF422A70EF324AD
:100A2800D96E000EF420DA6E42C0DEFF43C0DDFF4F
:100A38009851A627C9D6D0EC0BF0000E166ED10E31
:100A4800156EC7EC0BF0000E0001A66F050EA6652B
:100A580001D00FD0A651010D880EF324D96E000ED7
:100A6800F420DA6E000E7BEC0BF0DF6E0001A62B93
:100A7800EDD7010E7BEC0BF000018E6FCCEC0BF088
:100A88000001815100083C6E82513C0DF350000872
:100A98003D6E83C014F0156A0E0E176E100E166E9A
:100AA80068EC0BF0145000083E6E000189513C0DB3
:100AB800F3CF3FF08A51100DF3503F243E243D24DC
:100AC8003C248825566E010EB4EC0BF0C30E3C6E28
:100AD800CD0EE82EFED73C2EFCD700F03D0E206E42
:100AE800FE0E216E47EC07F0940EB4EC0BF0130EDB
:100AF800206EFE0E216E47EC07F081A2FED78138EA
:100B08000F0B0F0B0001806F81B2FED700F0010EB2
:100B1800B4EC0BF0C30E3C6ECD0EE82EFED73C2E87
:100B2800FCD700F0800EB4EC0BF0410E3C6EEE0EDC
:100B3800E82EFED73C2EFCD700D0F70E206EFF0E15
:100B4800216E54C022F055C023F047EC07F0C00EC8
:100B5800B4EC0BF0320E206EFF0E216E56C022F060
:100B6800236A47EC07F0D40EB4EC0BF0A30E206E0A
:100B7800FE0E216E47EC07F081A2FED781380F0BDD
:100B88000F0B00018F6F81B2FED700F00E0E00012F
:100B98008F19D8A4F1D7010EB4EC0BF0C30E3C6E3C
:100BA800CD0EE82EFED73C2EFCD700F0800EB4EC1C
:100BB8000BF0410E3C6EEE0EE82EFED73C2EFCD715
:100BC80000D0F70E206EFF0E216E54C022F055C0E3
:100BD80023F047EC07F0C00EB4EC0BF0540E206E77
:100BE800FD0E216E9FC022F0A0C023F0A1C024F00A
:100BF800A2C025F0A3C026F0A4C027F047EC07F058
:100C0800D40EB4EC0BF0A30E206EFE0E216E47EC52
:100C180007F081A2FED781380F0B0F0B0001906FF0
:100C280081B2FED700F00E0E00019019D8A4F1D7BA
:100C3800010EB4EC0BF0C30E3C6ECD0EE82EFED7C1
:100C48003C2EFCD700F0800EB4EC0BF0410E3C6E4D
:100C5800EE0EE82EFED73C2EFCD700D0F70E206E05
:100C6800FF0E216E54C022F055C023F047EC07F068
:100C7800C00EB4EC0BF09F0E206EFF0E216E47ECF9
:100C880007F0940EB4EC0BF01CD0C10E206EFF0ED2
:100C9800216E47EC07F023D0790E206EFF0E216EEF
:100CA80047EC07F01CD08F0E206EFE0E216E47EC2D
:100CB80007F015D0510E206EFF0E216E47EC07F09D
:100CC8000ED00001A551000AD8B4DFD7010AD8B464
:100CD800E3D7030AD8B4EED7010AD8B4E4D7D40EC0
:100CE800B4EC0BF0A30E206EFE0E216E47EC07F05D
:100CF80081A2FED781380F0B0F0B0001916F81B2D3
:100D0800FED700F00E0E00019119D8A4F1D7010EFC
:100D1800B4EC0BF0C30E3C6ECD0EE82EFED73C2E85
:100D2800FCD700F0800EB4EC0BF0410E3C6EEE0EDA
:100D3800E82EFED73C2EFCD700D0F70E206EFF0E13
:100D4800216E54C022F055C023F047EC07F0C00EC6
:100D5800B4EC0BF0AB0E206EFF0E216E47EC07F0E3
:100D6800940EB4EC0BF015D0CC0E206EFF0E216E55
:100D780047EC07F019D0DB0E206EFE0E216E47EC13
:100D880007F012D0C90E206EFE0E216E47EC07F058
:100D98000BD000019751000AD8B4E6D7010AD8B49D
:100DA800EAD7030AD8B4EED7D40EB4EC0BF0A30EEE
:100DB800206EFE0E216E47EC07F081A2FED7813827
:100DC8000F0B0F0B0001926F81B2FED700F00E0ED1
:100DD80000019219D8A4F1D7010EB4EC0BF0C30EA0
:100DE8003C6ECD0EE82EFED73C2EFCD700F0800ED0
:100DF800B4EC0BF0410E3C6EEE0EE82EFED73C2E06
:100E0800FCD700D0D70E206EFF0E216E54C022F002
:100E180055C023F047EC07F0C00EB4EC0BF0100EF1
:100E2800206EFF0E216E47EC07F0940EB4EC0BF029
:100E3800ED0E206EFE0E216E000E236E000E226E49
:100E4800000E256E000E246E000E276E000E266E14
:100E580047EC07F0D40EB4EC0BF0A30E206EFE0E98
:100E6800216E47EC07F081A2FED781380F0B0F0BDC
:100E78000001936F81B2FED700F00E0E00019319A6
:100E8800D8B41200F0D7220E336E000E346E74D12F
:100E9800250E3B18D8B404D03B50AAEC0BF06CD10B
:100EA800000E3A6E000E396E000E386E03D038848C
:100EB800204A212A20C0F6FF21C0F7FF0800F5507C
:100EC800300AD8B4F4D720C0F6FF21C0F7FF0800D5
:100ED800F5508DEC0BF0D8A035D0000E3A6E000E10
:100EE800396E39C014F03AC015F0000E176E0A0EAC
:100EF800166E68EC0BF014C039F015C03AF0D00E3D
:100F08002E6EFF0E2F6E20C0F6FF21C0F7FF0800DF
:100F1800F550306E316A2E5030262F503122305025
:100F2800392631503A22204A212A20C0F6FF21C012
:100F3800F7FF0800F5508DEC0BF0D8A003D0D1D7FF
:100F4800388E17D020C0F6FF21C0F7FF204A212A8B
:100F58000800F5CF3BF03B50000AD8B41200640AF1
:100F6800D8B407D00D0AD8B404D0110AD8B4E8D739
:100F780003D138BE15D033C0D9FF34C0DAFFDECF75
:100F880036F0DDCF37F0020E3326000E342237AEAE
:100F980044D0030E3812366C371ED8B0372A3DD0ED
:100FA80033C0D9FF34C0DAFFDECF36F0DDCF37F0FB
:100FB800020E3326000E342230D0010E3B6E050E91
:100FC8003B18D8B432D03B50020D140EF324F66E01
:100FD800FD0EF420F76E0900F550365C0900F55057
:100FE8003758D8A022D03B2AEAD7010E3B6E040E10
:100FF8003B18D8B41AD03B50020D1E0EF324F66EDF
:10100800FD0EF420F76E0900F550365C0900F55026
:101018003758D8A00AD03B2AEAD73850800B000AA4
:10102800D8B4CBD7800AD8B4E0D739503A10D8B45E
:1010380009D038C02EF0030E2E16D8B403D03906C6
:10104800D8A03A06800E3BBE7F0E2E6E39503B5C10
:101058003A50800A2E58D8B007D03B50395E000E5F
:101068003BBEFF0E3A5A04D0000E3A6E000E396E9F
:1010780038A414D038C02EF0030E2E16D8B403D0DE
:101088002D0EAAEC0BF039503A10D8B41ED0300E01
:10109800AAEC0BF03906D8A03A06F5D739503A1021
:1010A800D8B40AD0200EAAEC0BF03906D8A03A061C
:1010B80039503A10D8A4F6D738C02EF0030E2E16A1
:1010C800D8B403D02D0EAAEC0BF03BC035F050D0AD
:1010D8003550020D140EF324F66EFD0EF420F76E53
:1010E8000900F5CF16F00A00F5CF17F036C014F056
:1010F80037C015F0D6EC0AF014C01BF015C01CF070
:10110800000E1E6E0A0E1D6E47EC0BF01B50300FC2
:101118003B6E2BD036C014F037C015F03550020D99
:101128001E0EF324F66EFD0EF420F76E0900F5CFBF
:1011380016F00A00F5CF17F0D6EC0AF014500F0B92
:10114800326E3250010DFF0EF324F66EFE0EF420BF
:10115800F76E0800F5CF3BF008D03850800B000A36
:10116800D8B4B6D7800AD8B4D5D73B50AAEC0BF080
:1011780035063528D8A4F1D720C0F6FF21C0F7FFDF
:10118800204A212A0800F5CF3BF03B50D8B4120082
:101198007FD6000E896E000E8A6E000E8B6E000ED2
:1011A8008C6E000E8D6E92689368800E946E000EA1
:1011B800956E000E966E000EC26E0F0EC16EF08612
:1011C800F28EFFEC0AF0A00E216E860E226E010E42
:1011D800236E000E246EA8EC0AF0D0EC0BF0000E83
:1011E800166ED00E156EC7EC0BF0000E166E000EC4
:1011F800156EC7EC0BF0CCEC0BF0D0EC0BF0000E3E
:10120800166ED10E156EC7EC0BF0000E4D6E050E66
:101218004D6401D00ED04D50010D460EF324D96E09
:10122800000EF420DA6E000E7BEC0BF0DF6E4D2A18
:10123800EED7010E7BEC0BF04C6ECCEC0BF00C0EE9
:10124800B4EC0BF00001C551C611D8A445D0C35168
:10125800C411D8A441D0800EB4EC0BF0410E446EFA
:10126800EE0EE82EFED7442EFCD700D0330E206EAB
:10127800FD0E216E4BC022F0236A4AC024F0256A75
:101288004CC026F0276A48C028F0296A47C02AF0CF
:101298002B6A46C02CF02D6A47EC07F0940EB4EC8C
:1012A8000BF0AA0E206EFD0E216E47EC07F0D40E4F
:1012B800B4EC0BF0E90E206EFD0E216E47EC07F042
:1012C800330E456EBB0E446EE00EE82EFED7442E5C
:1012D800FCD7452EFAD781D70001C551C611D8B41D
:1012E80008D0000EC66F000EC56F09EC00F007EFBE
:1012F80000F00001C351C411D8B407EF00F0000E8C
:10130800C46F000EC36FD7EC0BF007EF00F00600B8
:10131800FACF01F0FBCF02F0E9CF03F0EACF04F0F7
:10132800E1CF05F0E2CF06F0D9CF07F0DACF08F029
:10133800F3CF09F0F4CF0AF0F6CF0BF0F7CF0CF0AB
:10134800F8CF0DF0F5CF0EF059C00FF05AC010F0DD
:101358005BC011F05CC012F0F0A018D081380F0B00
:101368000F0B136E0C0E1318D8A406D0000E000134
:10137800C66F010EC56F09D00E0E1318D8A405D07C
:10138800000E0001C46F010EC36FF09012C05CF034
:1013980011C05BF010C05AF00FC059F00EC0F5FF35
:1013A8000DC0F8FF0CC0F7FF0BC0F6FF0AC0F4FF32
:1013B80009C0F3FF08C0DAFF07C0D9FF06C0E2FF83
:1013C80005C0E1FF04C0EAFF03C0E9FF02C0FBFF5C
:1013D80001C0FAFF59921100000E1C6E000E1D6E1E
:1013E800000E1E6E000E1F6E185019101A101B10DA
:1013F800D8B42AD0010E206E06D0D89018361936E7
:101408001A361B36202A1BAEF8D7D8901C361D3644
:101418001E361F361850145C195015581A50165895
:101428001B501758D8A009D01850145E1950155AD7
:101438001A50165A1B50175A1C80D8901B321A3251
:1014480019321832202EE1D71CC014F01DC015F037
:101458001EC016F01FC017F01200156E1550F00BC5
:10146800146E8C500F0B8C6E14508C108C6E000EFA
:10147800F2BE010E586EF29E8C86530EE82EFED7F1
:1014880000F08C96C80E00D0E82EFDD758B002D0D8
:10149800F29E01D0F28E1538F00B156E1550F00B38
:1014A800146E8C500F0B8C6E14508C108C6E000EBA
:1014B800F2BE010E586EF29E8C86530EE82EFED7B1
:1014C80000F08C96C80E00D0E82EFDD758B002D098
:1014D800F29E01D0F28E12001C6E800EB4EC0BF05E
:1014E800410E1B6EEE0EE82EFED71B2EFCD700D049
:1014F80018D0800EB4EC0BF0410E1B6EEE0EE82EE9
:10150800FED71B2EFCD700D019D0C00EB4EC0BF0C0
:1015180015D0940EB4EC0BF011D0D40EB4EC0BF043
:101528000DD01A50000AD8B4E4D7010AD8B4EDD7C0
:10153800030AD8B4EED7010AD8B4EFD7010E176E54
:101548001C509CEC0BF01200C69A94869488800E6E
:10155800C76E280EC66E000EC56E000E146E5A0EAB
:10156800156E620E166E020E176E21C025F022C08F
:1015780026F023C027F024C028F0020ED890253684
:10158800263627362836E82EF9D725C018F026C083
:1015980019F027C01AF028C01BF0F0EC09F0140469
:1015A800C86E1200000E1A6E000E196E1650171033
:1015B800D8B41CD0010E186E04D0D8901636173641
:1015C800182A17AEFAD7D89019361A361650145C5E
:1015D80017501558D8A005D01650145E1750155A34
:1015E8001980D89017321632182EEDD719C014F07A
:1015F8001AC015F01200C30E176ECD0EE82EFED7D6
:10160800172EFCD700F0330EB4EC0BF0320EB4EC0E
:101618000BF0280EB4EC0BF00F0EB4EC0BF0060E2A
:10162800B4EC0BF0010EB4EC0BF0C30E176ECD0E3C
:10163800E82EFED7172EFCD700F00F0EB4EC0BF0F7
:101648001200A80EF66E170EF76E000EF86E00EE7A
:101658004EF010EE06F00900F5CFEEFFE550E15030
:10166800FAE100EEA7F0200EEE6AE806FDE1586AFE
:10167800576A566A556A546A59905992000EF86E1C
:101688000001CDEF08F01D501E10D8B418D0010E7F
:101698001F6E04D0D8901D361E361F2A1EAEFAD7EC
:1016A8001D501B5C1E501C58D8A004D01D501B5E3A
:1016B8001E501C5AD8901E321D321F2EF1D71BC047
:1016C8001BF01CC01CF0120014501602F3CF18F0C7
:1016D800F4CF19F014501702F350192615501602BA
:1016E800F350192618C014F019C015F01200156E21
:1016F800BEEC0BF0C586BEEC0BF0C9CF16F0BEEC05
:101708000BF015B002D0C59A01D0C58AC58816500D
:101718001200166E000E156E3A0E166005D02F0ECA
:10172800166402D0010E156E15C014F014301200A4
:10173800186E18C019F01950D8B412001744E846AA
:10174800FC0B1009B4EC0BF01906F5D7166E8C8457
:10175800165031EC0AF0C80E00D0E82EFDD7120062
:10176800166E8C94165031EC0AF0C80E00D0E82E94
:10177800FDD71200C7B4FED7C5CF14F01F0E14163C
:10178800D8B41200F7D7BEEC0BF015C0C9FF120091
:10179800BEEC0BF0C5841200BEEC0BF0C580120045
:0817A800FFFFFFFFFFFF12002D
:10FD0200003132334134353642373839432A3023D1
:10FD1200440001000A006400E803102701001000FB
:10FD2200000100100030200004021800010210043B
:10FD320014253032782F253032782F253032782032
:10FD4200202020253032783A253032783A25303258
:10FD5200780050726573637269702E3A202564527E
:10FD6200202564462025644C00202020202020509D
:10FD7200494C4C532E2E2E202020202020002020C3
:10FD820020202054525920414741494E2020202012
:10FD9200202000202020202044495350454E534922
:10FDA2004E4720202020200020202020202A2074BE
:10FDB2006F20424547494E2020202020002020204D
:10FDC200494E56414C494420494E5055542020201A
:10FDD2002000202020202320746F20636F6E66692C
:10FDE200726D2020202000202020202320666F72A8
:10FDF200204C4F4747494E472020200020202041D9
:10FE02006674657220656E746572696E6720202063
:10FE1200002020505245535320414E59204B455902
:10FE22002E2E2E202000202073656C656374696F6E
:10FE32006E2C207072657373202000204F50455243
:10FE42004154494F4E20434F4D504C45544520009C
:10FE5200283329426F746820283429416C746572F2
:10FE62006E6174650028332920416C7465726E617D
:10FE7200746520284D6F6E290028322920416C7448
:10FE820065726E617465202853756E29002D204DB0
:10FE92006F726E2E20262041667465726E6F6F6ED1
:10FEA20000282320746F20636F6E74696E75652E4F
:10FEB2002E2E290050726573637269702E2064655C
:10FEC2007461696C733A002D20416C7465726E61C5
:10FED200746520284D6F6E29002D20416C74657267
:10FEE2006E617465202853756E2900523A2025648C
:10FEF20020463A202564204C3A20256400303132D5
:10FF02003334353637383961626364656600506967
:10FF12006C6C732052656D61696E696E673A004E52
:10FF2200756D626572206F662070696C6C733A0041
:10FF3200546F74616C2074696D653A202564207376
:10FF4200002D20256452202564462025644C002D76
:10FF520020416C7465726E6174696E6700526570DF
:10FF620065746974696F6E3A20002832294166749B
:10FF720065726E6F6F6E002D2041667465726E6FD2
:10FF82006F6E730028312920457665727964617934
:10FF9200004672657175656E63793A20005265702C
:10FFA20065746974696F6E3A004672657175656E43
:10FFB20063793A002831294D6F726E696E67002DA0
:10FFC200204D6F726E696E6773002D2045766572E3
:10FFD200796461790052756E20256420002020200A
:10FFE200463A205F002020204C3A205F002020204B
:0DFFF200523A205F0052756E202564000019
:020000040020DA
:08000000FFFFFFFFFFFFFFFF00
:020000040030CA
:0E000000FF061F1EFF8381FF0F400FE00F4021
:00000001FF
