:0400000007EF00F016
:100008005D82F2ED03F08AEF05F0F29E20EE57F0E4
:1000180010EE3FF0050EDBCFE3FFE806FCE2040E2E
:10002800396E030E3A6E010EF3EC05F0C30E376E0F
:10003800CD0EE82EFED7372EFCD700F0800EF3EC5D
:1000480005F0410E376EEE0EE82EFED7372EFCD7A0
:1000580000D05F0E1B6EFF0E1C6E3DEC02F0C00E52
:10006800F3EC05F0740E1B6EFF0E1C6E3DEC02F0F7
:10007800940EF3EC05F0350E1B6EFF0E1C6E3DEC76
:1000880002F05C0E386E510E376E600EE82EFED709
:10009800372EFCD7382EFAD700D0010EF3EC05F036
:1000A800C30E376ECD0EE82EFED7372EFCD700F0E4
:1000B800800EF3EC05F0410E376EEE0EE82EFED7FB
:1000C800372EFCD700D0AF0E1B6EFF0E1C6E3DEC1A
:1000D80002F0C00EF3EC05F0F60E1B6EFF0E1C6E60
:1000E8003DEC02F0940EF3EC05F0E60E1B6EFF0EED
:1000F8001C6E3DEC02F0D40EF3EC05F0EE0E1B6E18
:10010800FF0E1C6E3DEC02F0010E1A6E060ED5ECC9
:1001180004F00F0EF3EC05F03F6840684168426850
:100128004368446881A2FED781380F0B0F0B3B6EE2
:1001380081B2FED700F03B50D8B407D03B04D8B406
:1001480004D00D0E3B18D8A42AD0010E1A6E060E44
:10015800D5EC04F03B50010DAF0EF324F66EFE0E05
:10016800F420F76E0800F550E9EC05F00DD0000E0C
:10017800406E010E07D0000E406E020E03D0000E36
:10018800406E000E3F6ECED73B50000AD8B4EFD772
:10019800010AD8B4F0D70C0AD8B4F1D7C3D70E0ED9
:1001A8003B18D8A4BFD73F2803E14028D8B4BAD712
:1001B800020E1A6E060ED5EC04F081A2FED7813825
:1001C8000F0B0F0B3C6E81B2FED700F03C50D8B439
:1001D80007D03C04D8B404D00D0E3C18D8A42AD0BB
:1001E800020E1A6E060ED5EC04F03C50010DAF0E4F
:1001F800F324F66EFE0EF420F76E0800F550E9ECD5
:1002080005F00DD0000E426E010E07D0000E426EB2
:10021800020E03D0000E426E000E416ECED73C5047
:10022800000AD8B4EFD7010AD8B4F0D70C0AD8B46A
:10023800F1D7C3D70E0E3C18D8A4BFD7412803E185
:100248004228D8B4BAD7030E1A6E060ED5EC04F0BD
:1002580081A2FED781380F0B0F0B3E6E81B2FED7FD
:1002680000F03E50D8B40BD03E04D8B408D0020EEB
:100278003E18D8B404D00D0E3E18D8A431D0030EC1
:100288001A6E060ED5EC04F03E50010DAF0EF324A5
:10029800F66EFE0EF420F76E0800F550E9EC05F056
:1002A80011D0000E446E010E0BD0000E446E020EEB
:1002B80007D0000E446E030E03D0000E446E000EED
:1002C800436EC6D73E50000AD8B4EBD7010AD8B45B
:1002D800ECD7030AD8B4EDD70F0AD8B4EED7B8D7FD
:1002E8000E0E3E18D8A4B4D7432803E14428D8B446
:1002F800AFD743504124376E44504220386E3F50A8
:1003080037264050382238BE32D0385004E1050E26
:10031800375CD8A02CD00C0EF3EC05F0010EF3ECF2
:1003280005F0C30E376ECD0EE82EFED7372EFCD75C
:1003380000F0C00EF3EC05F0200E1B6EFF0E1C6ED5
:100348003DEC02F0940EF3EC05F0F60E1B6EFE0E7B
:100358001C6E3DEC02F0330E386EBB0E376EE00EAD
:10036800E82EFED7372EFCD7382EFAD796D6010EB0
:10037800F3EC05F0C30E376ECD0EE82EFED7372E00
:10038800FCD700F0800EF3EC05F0410E376EEE0E50
:10039800E82EFED7372EFCD700D0C00E1B6EFF0EFE
:1003A8001C6E3DEC02F0C00EF3EC05F0DB0E1B6E8C
:1003B800FF0E1C6E3DEC02F0940EF3EC05F0CE0E31
:1003C8001B6EFF0E1C6E3DEC02F0D40EF3EC05F034
:1003D800890E1B6EFF0E1C6E3DEC02F0000E1A6EAD
:1003E8000C0ED5EC04F03F684068416842684368E9
:1003F800446881A2FED781380F0B0F0B3D6E81B286
:10040800FED700F03D50D8B407D03D04D8B404D08E
:100418000D0E3D18D8A41ED0010E1A6E060ED5EC8E
:1004280004F03D50010DAF0EF324F66EFE0EF420DD
:10043800F76E0800F550E9EC05F03D50010DAF0EE0
:10044800F324F66EFE0EF420F76E0800F5503F6EAA
:10045800406ACFD70E0E3D18D8A4CBD73F2803E16A
:100468004028D8B4C6D7020E1A6E060ED5EC04F092
:1004780012001D0E2D6E000E2E6EE8D0250E3618B9
:10048800D8B404D03650E9EC05F0E0D0000E356E53
:10049800000E346E000E306E03D030841B4A1C2AC6
:1004A8001BC0F6FF1CC0F7FF0800F550300AD8B48F
:1004B800F4D71BC0F6FF1CC0F7FF0800F550CCECC2
:1004C80005F0D8A032D0000E356E000E346E34C060
:1004D80014F035C015F0000E176E0A0E166EA7EC54
:1004E80005F014C034F015C035F0D00E296EFF0E9B
:1004F8002A6E1BC0F6FF1CC0F7FF0800F5502B6ED4
:100508002C6A29502B262A502C222B5034262C506A
:1005180035221B4A1C2A1BC0F6FF1CC0F7FF080027
:10052800F550CCEC05F0D8B0D2D71BC0F6FF1CC0F4
:10053800F7FF1B4A1C2A0800F5CF36F03650000A90
:10054800D8B41200780AD8A481D02DC0D9FF2EC003
:10055800DAFFDECF31F0DDCF32F0020E2D26000EAD
:100568002E22010E366E040E3618D8B412D036502C
:10057800020DC00EF324F66EFE0EF420F76E09008D
:10058800F550315C0900F5503258D8A002D0362A0F
:10059800EAD7800E36BE7F0E296E3450365C355051
:1005A800800A2958D8B007D03650345E000E36BEBF
:1005B800FF0E355A04D0000E356E000E346E30A48E
:1005C8000BD034503510D8B415D0300EE9EC05F006
:1005D8003406D8A03506F5D734503510D8B40AD02B
:1005E800200EE9EC05F03406D8A035063450351055
:1005F800D8A4F6D736C033F025D031C014F032C0B5
:1006080015F03350020DC00EF324F66EFE0EF420E2
:10061800F76E0900F5CF16F00A00F5CF17F03BEC9E
:1006280005F014500F0B2F6E2F50010D9E0EF32462
:10063800F66EFF0EF420F76E0800F5CF36F0365050
:10064800E9EC05F033063328D8A4D7D71BC0F6FF4A
:100658001CC0F7FF1B4A1C2A0800F5CF36F036509D
:10066800D8B412000BD7000E896E000E8A6E000EE9
:100678008B6E000E8C6E000E8D6E92689368800EE5
:10068800946E000E956E000E966E000EC26E0F0EE2
:10069800C16EF086F28E64EC05F0A00E216E860E17
:1006A800226E010E236E000E246E0DEC05F00FEC89
:1006B80006F0000E166ED00E156E06EC06F0000E53
:1006C800166E000E156E06EC06F00BEC06F00FEC3D
:1006D80006F0000E166ED10E156E06EC06F0000E32
:1006E8004E6E050E4E6401D00ED04E50010D470ED1
:1006F800F324D96E000EF420DA6E000EBAEC05F081
:10070800DF6E4E2AEED7010EBAEC05F04D6E0BECFB
:1007180006F00C0EF3EC05F053505410D8A445D055
:1007280051505210D8A441D0800EF3EC05F0410E80
:10073800456EEE0EE82EFED7452EFCD700D0D50E1E
:100748001B6EFE0E1C6E4DC01DF01E6A4CC01FF0C5
:10075800206A4BC021F0226A49C023F0246A48C0AD
:1007680025F0266A47C027F0286A3DEC02F0940E6F
:10077800F3EC05F00B0E1B6EFF0E1C6E3DEC02F049
:10078800D40EF3EC05F04A0E1B6EFF0E1C6E3DEC0A
:1007980002F0330E466EBB0E456EE00EE82EFED715
:1007A800452EFCD7462EFAD782D753505410D8B4CA
:1007B80008D0000E546E000E536E09EC00F007EFDF
:1007C80000F051505210D8B407EF00F0000E526EEE
:1007D800000E516E16EC06F007EF00F00600FACF97
:1007E80001F0FBCF02F0E9CF03F0EACF04F0E1CF4C
:1007F80005F0E2CF06F0D9CF07F0DACF08F0F3CF53
:1008080009F0F4CF0AF0F6CF0BF0F7CF0CF0F8CFE1
:100818000DF0F5CF0EF05DC00FF05EC010F05FC0B8
:1008280011F060C012F0F0A016D081380F0B0F0B3A
:10083800136E0C0E1318D8A405D0000E546E010EBA
:10084800536E08D00E0E1318D8A404D0000E526EA2
:10085800010E516EF09012C060F011C05FF010C030
:100868005EF00FC05DF00EC0F5FF0DC0F8FF0CC0C4
:10087800F7FF0BC0F6FF0AC0F4FF09C0F3FF08C07A
:10088800DAFF07C0D9FF06C0E2FF05C0E1FF04C0D8
:10089800EAFF03C0E9FF02C0FBFF01C0FAFF5D9257
:1008A8001100000E1C6E000E1D6E000E1E6E000E56
:1008B8001F6E185019101A101B10D8B42AD0010E28
:1008C800206E06D0D890183619361A361B36202ACC
:1008D8001BAEF8D7D8901C361D361E361F3618505A
:1008E800145C195015581A5016581B501758D8A090
:1008F80009D01850145E1950155A1A50165A1B5020
:10090800175A1C80D8901B321A3219321832202EEE
:10091800E1D71CC014F01DC015F01EC016F01FC092
:1009280017F01200156E1550F00B146E8C500F0B4B
:100938008C6E14508C108C6E000EF2BE010E566E2A
:10094800F29E8C86530EE82EFED700F08C96C80EC9
:1009580000D0E82EFDD756B002D0F29E01D0F28E1C
:100968001538F00B156E1550F00B146E8C500F0BDC
:100978008C6E14508C108C6E000EF2BE010E566EEA
:10098800F29E8C86530EE82EFED700F08C96C80E89
:1009980000D0E82EFDD756B002D0F29E01D0F28EDC
:1009A80012001C6E800EF3EC05F0410E1B6EEE0E6D
:1009B800E82EFED71B2EFCD700D018D0800EF3EC03
:1009C80005F0410E1B6EEE0EE82EFED71B2EFCD74F
:1009D80000D019D0C00EF3EC05F015D0940EF3EC4E
:1009E80005F011D0D40EF3EC05F00DD01A50000A22
:1009F800D8B4E4D7010AD8B4EDD7030AD8B4EED7EF
:100A0800010AD8B4EFD7010E176E1C50DBEC05F0C5
:100A18001200C69A94869488800EC76E280EC66EF9
:100A2800000EC56E000E146E5A0E156E620E166E0E
:100A3800020E176E21C025F022C026F023C027F031
:100A480024C028F0020ED8902536263627362836B8
:100A5800E82EF9D725C018F026C019F027C01AF0DB
:100A680028C01BF055EC04F01404C86E1200000EE8
:100A7800196E000E186E16501710D8B41CD0010E3F
:100A88001A6E04D0D890163617361A2A17AEFAD727
:100A9800D890183619361650145C17501558D8A027
:100AA80005D01650145E1750155A1880D890173272
:100AB80016321A2EEDD718C014F019C015F012000E
:100AC800C30E176ECD0EE82EFED7172EFCD700F0FA
:100AD800330EF3EC05F0320EF3EC05F0280EF3ECD0
:100AE80005F00F0EF3EC05F0060EF3EC05F0010E21
:100AF800F3EC05F0C30E176ECD0EE82EFED7172EB9
:100B0800FCD700F00F0EF3EC05F01200260EF66E7F
:100B18000C0EF76E000EF86E00EE57F010EE06F0B1
:100B28000900F5CFEEFFE550E150FAE100EE4FF095
:100B3800080EEE6AE806FDE15D905D92000EF86E23
:100B4800000137EF03F014501602F3CF18F0F4CF7A
:100B580019F014501702F350192615501602F350C5
:100B6800192618C014F019C015F01200156EFDEC06
:100B780005F0C586FDEC05F0C9CF16F0FDEC05F0D3
:100B880015B002D0C59A01D0C58AC5881650120082
:100B9800166E000E156E3A0E166005D02F0E1664EE
:100BA80002D0010E156E15C014F014301200186E24
:100BB80018C019F01950D8B412001744E846FC0BB5
:100BC8001009F3EC05F01906F5D7166E8C8416504B
:100BD80096EC04F0C80E00D0E82EFDD71200166E71
:100BE8008C94165096EC04F0C80E00D0E82EFDD771
:100BF8001200C7B4FED7C5CF14F01F0E1416D8B410
:100C08001200F7D7FDEC05F015C0C9FF1200FDEC86
:100C180005F0C5841200FDEC05F0C5801200FFFF49
:060C2800FFFFFFFF1200B8
:10FEAE00003132334134353642373839432A302324
:10FEBE004400010010000001001000300700040291
:10FECE0018000102100414253032782F25303278B4
:10FEDE002F2530327820202020253032783A2530D8
:10FEEE0032783A2530327800202020202054525982
:10FEFE0020414741494E2020202020200020202054
:10FF0E0020202A20746F20424547494E2020202071
:10FF1E002000202020494E56414C494420494E5045
:10FF2E0055542020202000202020202320746F20D4
:10FF3E00636F6E6669726D202020200020202020C5
:10FF4E002320666F72204C4F4747494E4720202092
:10FF5E0000202020416674657220656E746572699A
:10FF6E006E6720202000202073656C656374696FB6
:10FF7E006E2C207072657373202000283329426F17
:10FF8E00746820283429416C7465726E6174650042
:10FF9E0030313233343536373839616263646566F1
:10FFAE00004E756D626572206F662070696C6C73A1
:10FFBE003A0052657065746974696F6E3A205F001D
:10FFCE0028322941667465726E6F6F6E0028312972
:10FFDE004D6F726E696E6700202020463A205F00DA
:10FFEE002020204C3A205F00202020523A205F0033
:01FFFE000002
:020000040020DA
:08000000FFFFFFFFFFFFFFFF00
:020000040030CA
:0E000000FF061F1EFF8381FF0F400FE00F4021
:00000001FF
